:020000040800F2
:1000000000000220418C0008758B0008838B0008DB
:10001000898B00088F8B0008958B0008000000007A
:100020000000000000000000000000006145000822
:100030009B8B000800000000A14700080948000849
:10004000918C0008918C0008918C0008918C00081C
:10005000918C0008918C0008918C0008918C00080C
:10006000918C0008918C0008918C0008918C0008FC
:10007000918C0008918C0008918C0008918C0008EC
:10008000918C0008918C0008918C0008918C0008DC
:10009000918C0008918C0008918C0008918C0008CC
:1000A000918C0008A98B0008918C0008918C0008A5
:1000B000918C0008918C0008918C0008918C0008AC
:1000C000918C0008918C0008918C0008918C00089C
:1000D000918C0008918C0008D17B0008F17F00080A
:1000E000918C0008918C0008918C0008918C00087C
:1000F000918C0008918C0008918C0008918C00086C
:10010000918C0008918C0008918C0008918C00085B
:10011000918C0008918C0008918C0008918C00084B
:10012000918C0008918C0008918C0008918C00083B
:10013000918C0008918C0008918C0008918C00082B
:10014000918C0008918C0008918C0008918C00081B
:10015000918C0008918C0008918C0008918C00080B
:10016000918C0008918C0008918C0008918C0008FB
:10017000918C0008918C0008918C00080000000010
:08018000918C0008918C00082D
:1001900010B5054C237833B9044B13B10448AFF3C1
:1001A00000800123237010BD280200200000000001
:1001B000FCAC000808B5034B1BB103490348AFF37F
:1001C000008008BD000000002C020020FCAC0008EC
:1001D00010F8012B11F8013B012A28BF9A42F7D0F1
:1001E000D01A7047034613F8012B002AFBD1181AC6
:1001F000013870470000000000000000000000000F
:1002000001F0FF01102A2BDB10F0070F08D010F8C7
:10021000013B013A8B422DD010F0070F42B3F6D1CB
:10022000F0B441EA012141EA014122F007047FF0E4
:1002300000070023F0E80256083C85EA010586EA3B
:10024000010685FA47F5A3FA87F586FA47F6A5FA77
:1002500087F68EB9EED1F0BC01F0FF0102F0070283
:1002600032B110F8013B013A83EA010313B1F8D12E
:100270000020704701387047002D06BF354603380F
:10028000073815F0010F07D1013015F4807F02BF48
:10029000013015F4C03F0130F0BC0138704700BF99
:1002A00053B94AB9002908BF00281CBF4FF0FF31DD
:1002B0004FF0FF3000F07AB9ADF1080C6DE904CED3
:1002C00000F006F8DDF804E0DDE9022304B0704731
:1002D0002DE9F0478C460D460446089E002B51D16F
:1002E0008A4217466DD9B2FA82FEBEF1000F0BD0DA
:1002F000CEF1200C01FA0EF520FA0CFC02FA0EF7F2
:100300004CEA050C00FA0EF44FEA174A250CBCFB28
:10031000FAF81FFA87F90AFB18CC45EA0C4508FBE6
:1003200009F3AB420AD9ED1908F1FF3280F02381BD
:10033000AB4240F22081A8F102083D44ED1AA4B27C
:10034000B5FBFAF00AFB105544EA054400FB09F935
:10035000A14509D9E41900F1FF3380F00A81A145D4
:1003600040F2078102383C44A4EB090440EA08400B
:100370000021002E61D024FA0EF400233460736053
:10038000BDE8F0878B4207D9002E54D0002186E8C3
:1003900021000846BDE8F087B3FA83F1002940F058
:1003A0008E80AB4202D3824200F2FA80841A65EB5F
:1003B00003050120AC46002E3FD086E81010BDE8B2
:1003C000F08712B90127B7FBF2F7B7FA87FEBEF143
:1003D000000F34D1EB1B3A0C1FFA87FC0121B3FB51
:1003E000F2F8250C02FB183345EA03450CFB08F331
:1003F000AB4207D9ED1908F1FF3002D2AB4200F24F
:10040000D1808046ED1AA3B2B5FBF2F002FB105585
:1004100043EA05440CFB00FCA44507D9E41900F1AC
:10042000FF3302D2A44500F2B8801846A4EB0C04B6
:1004300040EA08409DE731463046BDE8F087CEF1FE
:10044000200405FA0EF307FA0EF720FA04F83A0C26
:1004500025FA04F448EA0308B4FBF2F14FEA184520
:1004600002FB11441FFA87FC45EA044501FB0CF32B
:10047000AB4200FA0EF409D9ED1901F1FF3080F01A
:100480008A80AB4240F2878002393D44EB1A1FFA62
:1004900088F5B3FBF2F002FB103345EA034500FB9D
:1004A0000CF3AB4207D9ED1900F1FF386FD2AB4224
:1004B0006DD902383D44EB1A40EA01418FE7C1F1A2
:1004C000200722FA07F88B4005FA01F448EA0303F3
:1004D00020FA07FE4FEA134CFD404EEA040EB5FB2E
:1004E000FCF94FEA1E440CFB19551FFA83F844EA45
:1004F000054509FB08F4AC4202FA01F200FA01FAE0
:1005000008D9ED1809F1FF3043D2AC4241D9A9F125
:1005100002091D442D1B1FFA8EFEB5FBFCF00CFBDF
:1005200010554EEA054400FB08F8A04507D9E41829
:1005300000F1FF3529D2A04527D902381C4440EAF2
:100540000940A4EB0804A0FB02894C45C6464D4671
:1005500015D312D056B1BAEB0E0364EB050404FABE
:1005600007F7CB401F43CC40376074600021BDE8E3
:10057000F0871846F8E69046E0E6C245EAD2B8EBC6
:10058000020E69EB03050138E4E72846D7E7404649
:1005900091E78146BEE7014678E702383C4445E7EB
:1005A000084608E7A8F102083D442BE7704700BF62
:1005B00080B487B000AFF8607A601A460B467B8142
:1005C00013463B817B6893F90030B3F1FF3F14D1B0
:1005D0007B689B78002B09D13B89012B06D17B6876
:1005E0005B7883F00103DAB27B685A703B89DAB238
:1005F0007B689A707B685B7831E00023FB8229E09E
:10060000FB8A1B01FA681344DB7A1A467B6893F96C
:1006100000309A421BD17B689B78002B0DD1FB8A5E
:100620001B01FA6813441B7B012B06D17B685B78A6
:1006300083F00103DAB27B685A70FB8A1B01FA6807
:1006400013441A7B7B689A707B685B7807E0FB8AAF
:100650000133FB82FA8A7B899A42D1D30023184660
:100660001C37BD465DF8047B704780B487B000AF8F
:10067000F8607A601A460B467B8113463B81002363
:10068000FB750023BB824BE07B689B78FB75BB8AC4
:100690001B01FA681344DB7A1A467B6893F9003031
:1006A0009A4217D17B68DB78002B09D1BB8A1B01EA
:1006B000FA6813441B7B012B02D17B6801229A70DC
:1006C000BB8A1B01FA6813441A7B7B68DA707B686B
:1006D0009B78FB75BB8A1B01FA681344DB7A1A46C8
:1006E0007B6893F901309A4217D17B681B79002B04
:1006F00009D1BB8A1B01FA6813441B7B012B02D171
:100700007B6800229A70BB8A1B01FA6813441A7B2B
:100710007B681A717B689B78FB75BB8A0133BB824F
:10072000BA8A7B899A42AFD3FB7D18461C37BD46F7
:100730005DF8047B704780B487B000AFF8607A60E2
:100740001A460B467B8113463B810023FB757B6871
:1007500093F90030B3F1FF3F26D17B681B79002B62
:100760001CD13B8C012B19D17B685B8801339AB279
:100770007B685A807B685B883A899A4204D17B689F
:1007800000225A800123FB757B685B883A899A4274
:1007900004D27B6800225A800023FB753B8CDAB2BE
:1007A0007B681A71FB7D43E00023BB823BE07B68E2
:1007B00093F900301946BB8A1B01FA681344DB7AAF
:1007C00099422DD17B681B79002B20D1BB8A1B015C
:1007D000FA6813441B7B012B19D17B685B880133BA
:1007E0009AB27B685A807B685B883A899A4204D1C6
:1007F0007B6800225A800123FB757B685B883A89FD
:100800009A4204D27B6800225A800023FB75BB8A7F
:100810001B01FA6813441A7B7B681A71FB7D07E0A1
:10082000BB8A0133BB82BA8A7B899A42BFD3002339
:1008300018461C37BD465DF8047B704780B590B004
:1008400000AFF8607A601A460B467B8113463B8105
:10085000002387F83F300023BB637B6893F90030A7
:10086000B3F1FF3F2ED107F11403184601F056FDF6
:1008700007F11403184608F041FCB8637B681B7A43
:10088000002B09D13B89012B06D17B685B881A4676
:10089000BB6B1A447B685A607B685A68BB6B9A4290
:1008A00009DC7B685B68002B05DD012387F83F309E
:1008B0007B6800225A603B89DAB27B681A7297F82B
:1008C0003F304BE00023BB8743E0BB8F1B01FA683E
:1008D0001344DB7A1A467B6893F900309A4235D18B
:1008E00007F11403184601F019FD07F11403184627
:1008F00008F004FCB8637B681B7A002B0DD1BB8F1A
:100900001B01FA6813441B7B012B06D17B685B88B3
:100910001A46BB6B1A447B685A607B685A68BB6B8B
:100920009A4209DC7B685B68002B05DD012387F8B0
:100930003F307B6800225A60BB8F1B01FA6813446A
:100940001A7B7B681A7297F83F3007E0BB8F013340
:10095000BB87BA8F7B899A42B7D3002318464037AA
:10096000BD4680BD80B485B000AF78600B467B800B
:1009700013463B800023FB813CE03B881B017A68E7
:1009800013441B68BB60FA8913469B0013449B0009
:100990001A46BB6813445B7C0B2B28D10023BB8118
:1009A00021E0FA8913469B0013449B001A46BB685A
:1009B00013441A78BB891B0179680B44DB7A9A428D
:1009C0000ED1FA8913469B0013449B001A46BB685C
:1009D0001344BA89120179680A44127BDA6006E08E
:1009E000BB890133BB81BA897B889A42D9D3FB8901
:1009F0000133FB813B881B017A6813449B88FA8989
:100A00009A42BAD3012318461437BD465DF8047BD9
:100A10007047000080B58AB002AFF8600846114602
:100A20001A4603467B810B463B811346FB803B897C
:100A30001B01FA6813441B687B613B891B01FA6840
:100A400013449B887B827B691B7C012B01D0002394
:100A50005FE10023FB830023BB8300237B8351E101
:100A60007A8B13469B0013449B001A467B69134400
:100A70005B7C013B0A2B00F2E68001A252F823F0D6
:100A8000F30B0008AD0A0008CB0A00082B0B000886
:100A9000EB0A00080B0B0008AF0B0008D10B000895
:100AA000510B00088D0B0008250C00087A8B1346AB
:100AB0009B0013449B001A467B6913449B681846AD
:100AC00001F038FC0346FB83C0E07A8B13469B00A1
:100AD00013449B001A467B691344DB689BB218469B
:100AE00001F066FC0346FB83B0E07A8B13469B0063
:100AF00013449B001A467B691344DB68DBB218463B
:100B000006F044FA0346FB83A0E07A8B13469B0071
:100B100013449B001A467B691344DB689BB218465A
:100B200001F0D8FB0346FB8390E07A8B13469B00D1
:100B300013449B001A467B691344DB68012202FAC6
:100B400003F31AB2B7F9063013401BB2FB837DE002
:100B50007A8B13469B0013449B001A467B6913440F
:100B600098687A8B13469B0013449B001A467B6956
:100B70001344DB689AB27989BB8B00931346024613
:100B8000F868FFF7D8FD0346FB835FE07A8B1346D6
:100B90009B0013449B001A467B6913449A68BB8BE5
:100BA0007989F868FFF74AFE0346FB834EE07A8BAB
:100BB00013469B0013449B001A467B6913449A68B2
:100BC000BB8B7989F868FFF7F3FC0346FB833DE0B4
:100BD0007A8B13469B0013449B001A467B6913448F
:100BE0009A68BB8B7989F868FFF73FFD0346FB8362
:100BF0002CE07A8B13469B0013449B001A467B69BA
:100C000013445B6898B27A8B13469B0013449B0095
:100C10001A467B691344DB68194606F081FD0346DA
:100C2000FB8313E03A897B891946F868FFF79AFE3F
:100C30007A8B13469B0013449B001A467B6913442E
:100C4000DB68FB8302E00023FB8300BF7B8B002B70
:100C500002D1FB8BBB8352E07A8B13469B0013447B
:100C60009B001A467B6913441B7C013B072B45D82C
:100C700001A252F823F000BF990C00089F0C000855
:100C8000A90C0008B30C0008BD0C0008CF0C00082C
:100C9000E10C0008F30C0008FB8BBB832FE0BA8B40
:100CA000FB8B1343BB832AE0BA8BFB8B1340BB83C4
:100CB00025E0BA8BFB8B5340BB8320E0BA8BFB8BC8
:100CC0001343BB83BB8B83F00103BB8317E0BA8B59
:100CD000FB8B1340BB83BB8B83F00103BB830EE014
:100CE000BA8BFB8B5340BB83BB8B83F00103BB836D
:100CF00005E0BB8B83F00103BB8300E000BF7B8B6F
:100D000001337B837A8B7B8A9A42FFF4A9AEBB8B3B
:100D1000DBB218462037BD4680BD00BF90B585B018
:100D200000AF78600B467B8013463B807B68002BCE
:100D300001D1002317E00023FB600FE0FB681B01DB
:100D40007A68D418FB689AB23B8879887868FFF78C
:100D500061FE03462373FB680133FB607A88FB68FE
:100D60009A42EBDC012318461437BD4690BD80B48F
:100D700087B000AFF860B9607A60FB685A687B683A
:100D80009A4201D3002314E0FB685B68591CFA689F
:100D900051601B01BA6813447B617B694FF0FF32DD
:100DA0009A607B699A687B695A607B690022DA6085
:100DB0007B6918461C37BD465DF8047B704780B4DC
:100DC00085B000AFF8607A603B600B46FB72FB6851
:100DD000FA7A1A70FB687A685A60FB683A689A6017
:100DE000FB680022DA6000BF1437BD465DF8047B63
:100DF000704780B586B000AFF860B9607A603B603C
:100E0000FB681B687B6134E0FB681B68BA681344AD
:100E10001B78202B3AD0202B06DC092B0FDB0A2B6A
:100E200034DD0D2B32D00AE03A2B2FD03A2B02DCE6
:100E30002C2B2BD003E05D2B28D07D2B26D000BFA0
:100E4000FB681B68BA6813441B781F2B06D9FB6824
:100E50001B68BA6813441B787E2B05D97A69FB6836
:100E60001A606FF0010338E0FB681B685A1CFB68CE
:100E70001A60FB681A687B689A4208D2FB681B6894
:100E8000BA6813441B78002BBED100E000BF3B685A
:100E9000002B06D1FB681B685A1EFB681A600023F2
:100EA0001BE03A6A3968F868FFF761FF38613B690F
:100EB000002B05D17A69FB681A604FF0FF330CE014
:100EC000FB681B687A6904213869FFF778FFFB68C3
:100ED0001B685A1EFB681A60002318461837BD4667
:100EE00080BD000080B588B000AFF860B9607A605E
:100EF0003B60FB681B68BB61FB681B685A1CFB6896
:100F00001A604CE1FB681B68BA6813441B78FB75D8
:100F1000FB7D222B1DD13B68002B01D1002350E12A
:100F2000BA6A3968F868FFF722FF38613B69002B1D
:100F300005D1BA69FB681A604FF0FF3341E1BB6924
:100F40005A1CFB681B6803213869FFF738FF002330
:100F500037E1FB7D5C2B40F01D81FB681B685A1C50
:100F60007B689A4280F01681FB681B685A1CFB68FC
:100F70001A60FB681B68BA6813441B78223B532B2A
:100F800000F2018101A252F823F000BF9311000882
:100F900087110008871100088711000887110008D1
:100FA00087110008871100088711000887110008C1
:100FB00087110008871100088711000887110008B1
:100FC0009311000887110008871100088711000895
:100FD0008711000887110008871100088711000891
:100FE0008711000887110008871100088711000881
:100FF0008711000887110008871100088711000871
:101000008711000887110008871100088711000860
:101010008711000887110008871100088711000850
:101020008711000887110008871100088711000840
:101030008711000887110008871100088711000830
:101040008711000887110008871100088711000820
:101050008711000887110008871100088711000810
:101060008711000887110008871100088711000800
:1010700087110008931100088711000887110008E4
:1010800087110008871100088711000893110008D4
:1010900087110008871100088711000893110008C4
:1010A00087110008871100088711000887110008C0
:1010B00087110008871100088711000893110008A4
:1010C0008711000887110008871100089311000894
:1010D0008711000893110008DD100008FB681B68E9
:1010E0005A1CFB681A600023FB6137E0FB681B6831
:1010F000BA6813441B782F2B06D9FB681B68BA68A3
:1011000013441B78392B21D9FB681B68BA68134438
:101110001B78402B06D9FB681B68BA6813441B7800
:10112000462B13D9FB681B68BA6813441B78602BE5
:1011300006D9FB681B68BA6813441B78662B05D96F
:10114000BA69FB681A606FF001033AE0FB681B683C
:101150005A1CFB681A60FB690133FB61FB69032BB6
:101160000BDCFB681A687B689A4206D2FB681B6836
:10117000BA6813441B78002BB8D1FB681B685A1E51
:10118000FB681A6006E0BA69FB681A606FF0010339
:1011900017E000BFFB681B685A1CFB681A60FB68FD
:1011A0001A687B689A4207D2FB681B68BA681344C6
:1011B0001B78002B7FF4A6AEBA69FB681A606FF04B
:1011C000020318462037BD4680BD00BF80B58CB0F5
:1011D00002AFF860B9607A603B60FB685B683B62B5
:1011E0005FE1FB681B68BA6813441B78FB77FB7FE1
:1011F0002C2B00F0DD802C2B10DC0D2B00F041811E
:101200000D2B04DC093B012B00F2198139E1202B65
:1012100000F03781222B00F0A18010E15D2B43D03C
:101220005D2B05DC3A2B00F0BC805B2B05D006E182
:101230007B2B02D07D2B37D001E13B6A01333B622F
:101240003B68002B00F01F813A6B3968F868FFF7A4
:101250008EFDB861BB69002B02D14FF0FF334FE127
:10126000FB689B68B3F1FF3F0AD0FB689B681B01DA
:101270003A6813443B613B69DB685A1C3B69DA609E
:10128000FB7F7B2B01D1012200E00222BB691A7097
:10129000FB681B681A46BB695A60FB685B68013BC8
:1012A0001A46FB689A60F7E03B68002B00F0ED807F
:1012B000FB7F7D2B01D1012300E00223BB77FB687C
:1012C0005B68013B7B6224E07B6A1B013A68134444
:1012D000BB61BB695B68B3F1FF3F17D0BB699B681B
:1012E000B3F1FF3F12D1BB691B78BA7F9A4202D09B
:1012F0006FF0010304E1FB684FF0FF329A60FB6876
:101300001B6801331A46BB699A6005E07B6A013BA2
:101310007B627B6A002BD7DA7B6AB3F1FF3F19D17E
:101320006FF00103ECE07B6A1B013A681344BB6178
:10133000BB695B68B3F1FF3F09D0BB699B68B3F140
:10134000FF3F04D1FB687A6A9A6000BFA4E07B6A21
:10135000013B7B627B6A002BE5DA9DE03B6B0093EF
:101360003B687A68B968F868FFF7BCFD78617B690B
:10137000002B01DA7B69C3E03B6A01333B62FB6807
:101380009B68B3F1FF3F00F082803B68002B7ED06A
:10139000FB689B681B013A681344DA680132DA6023
:1013A00075E0FB685B68013B1A46FB689A6073E076
:1013B0003B68002B6DD0FB689B68B3F1FF3F68D0A2
:1013C000FB689B681B013A6813441B78022B60D0B2
:1013D000FB689B681B013A6813441B78012B58D0AB
:1013E000FB685B68013B7B6225E07B6A1B013A6816
:1013F00013441B78022B06D07B6A1B013A68134406
:101400001B78012B14D17B6A1B013A6813445B687B
:10141000B3F1FF3F0CD07B6A1B013A6813449B6811
:10142000B3F1FF3F04D1FB687A6A9A6000BF30E0F5
:101430007B6A013B7B627B6A002BD6DA29E03B6B3F
:1014400000933B687A68B968F868FFF7D2FC786166
:101450007B69002B01DA7B6952E03B6A01333B6216
:10146000FB689B68B3F1FF3F15D03B68002B12D09F
:10147000FB689B681B013A681344DA680132DA6042
:1014800009E000BF08E000BF06E000BF04E000BFC5
:1014900002E000BF00E000BFFB681B685A1CFB684D
:1014A0001A60FB681A687B689A4207D2FB681B685F
:1014B000BA6813441B78002B7FF493AE3B68002B73
:1014C0001DD0FB685B68013B7B6215E07B6A1B01FA
:1014D0003A6813445B68B3F1FF3F0AD07B6A1B0193
:1014E0003A6813449B68B3F1FF3F02D16FF00203E7
:1014F00006E07B6A013B7B627B6A002BE6DA3B6A93
:1015000018462837BD4680BD80B483B000AF7860F0
:101510007B6800221A607B6800225A607B684FF06B
:10152000FF329A6000BF0C37BD465DF8047B704700
:1015300080B584B000AFF860B9607A60BB681B7892
:10154000032B1ED17868FEF74DFE03461946BB6893
:101550009A68BB685B68D31A994212D1BB685B6812
:101560001A46FB689818BB689A68BB685B68D31A10
:101570001A46796807F078FF0346002B01D1002353
:1015800001E04FF0FF3318461037BD4680BD000024
:1015900090B5ADF6640D02AF3B1D18603B46196077
:1015A0000023C7F854380023C7F850380023C7F881
:1015B0004C380023C7F848380023C7F844380023C4
:1015C000C7F840380023C7F83C3807F501631846D0
:1015D000FFF79AFF3B1D1868FEF704FE044607F16B
:1015E0001002391D07F5016080230093134622463F
:1015F0000968FFF7EBFDC7F82408D7F82438002B5B
:1016000004DD07F110031B78012B02D0002300F04A
:101610005CBE0123C7F8383800F04EBE07F1100257
:10162000D7F838381B01D1183B1DC74A1868FFF797
:101630007FFF0346002B06D1D7F838380133C7F8AF
:10164000383800F034BED7F83838013307F11002CB
:101650001B0113441B78022B40F028863A46D7F82A
:101660003C38D1331B0112681344981D07F1100256
:10167000D7F838381B01134404331B681A463B1D46
:101680001B689C1807F11002D7F838381B01134467
:1016900008331A6807F11001D7F838381B010B44DA
:1016A00004331B68D31A1A46214607F034FC3B4624
:1016B0001A68D7F83C38D1331B01134400221A6052
:1016C0003B461A68D7F83C38D1331B011344043326
:1016D00000221A80D7F83C38D9B23B461A68D7F8AE
:1016E0003C381B01134403F61B530A461A700023AF
:1016F000C7F8343800F098BD3B461A68D7F83C3834
:10170000D1331B01134404331B88013399B23B4688
:101710001A68D7F83C38D1331B01134404330A4606
:101720001A80D7F83828D7F834381344023307F131
:1017300010021B011344C7F82038D7F820385B6823
:1017400001333A1D12681344C7F81C3807F10C0323
:1017500000221A6007F0B0FB0246D7F81C381B784D
:10176000013313441B7803F00303002B00F0FE84C5
:1017700007F0A2FB0246D7F81C381B78013313444C
:101780001B7803F00303022B40F0F0843B461968FA
:10179000D7F8542813469B0013449B000B4403F5D1
:1017A000447300221A70D7F81C381B78633B142B43
:1017B00000F2D28401A252F823F000BFC11A00083F
:1017C000111C000859210008611D0008CB180008F1
:1017D00059210008C9190008592100085921000899
:1017E00059210008592100085921000859210008F1
:1017F0004D19000859210008791E00081118000829
:10180000332000085921000859210008451A000812
:101810003B461968D7F8542813469B0013449B0095
:101820000B4403F221330B221A700023A7F832383D
:101830002CE0B7F832383A46D1331B011268134412
:10184000063303221946D7F81C0807F055FB034658
:10185000002B16D1B7F832383A4612681B011344F0
:1018600003F61B5318783B461968D7F854281346DB
:101870009B0013449B000B4403F5447302461A700B
:101880000AE0B7F832380133A7F83238B7F832280F
:10189000D7F83C389A42CCDBD7F81C3805331022F5
:1018A0000021184607F0A0FE0346D8B23B4619684F
:1018B000D7F8542813469B0013449B000B4403F5B0
:1018C000487302461A7000F048BC3B461968D7F8C6
:1018D000542813469B0013449B000B4403F221330E
:1018E00006221A7007F10C031B68033307F10C0181
:1018F0001022184607F078FE0346D8B23B46196816
:10190000D7F8542813469B0013449B000B4403F55F
:10191000487302461A7007F10C031B6801330A2250
:101920000021184607F060FE034618463B4619683A
:10193000D7F8542813469B0013449B000B4403F52F
:101940004773186000F009BC14AD00083B461968E5
:10195000D7F8542813469B0013449B000B4403F212
:10196000213304221A7007F10C031B68033307F1BB
:101970000C011022184607F037FE0346D8B23B464A
:101980001968D7F8542813469B0013449B000B4456
:1019900003F5487302461A7007F10C031B68013304
:1019A0000A220021184607F01FFE034618463B4650
:1019B0001968D7F8542813469B0013449B000B4426
:1019C00003F547731860C8E33B461968D7F85428F5
:1019D00013469B0013449B000B4403F22133052262
:1019E0001A7007F10C031B68033307F10C01102276
:1019F000184607F0F9FD0346D8B23B461968D7F8F8
:101A0000542813469B0013449B000B4403F5487372
:101A100002461A7007F10C031B6801330A220021E9
:101A2000184607F0E1FD034618463B461968D7F80B
:101A3000542813469B0013449B000B4403F5477343
:101A400018608AE33B461968D7F8542813469B0070
:101A500013449B000B4403F2213303221A7007F155
:101A60000C031B68033307F10C011022184607F022
:101A7000BBFD0346D8B23B461968D7F85428134635
:101A80009B0013449B000B4403F5487302461A70F5
:101A900007F10C031B68013310220021184607F0E0
:101AA000A3FD034618463B461968D7F85428134649
:101AB0009B0013449B000B4403F5477318604CE3F1
:101AC0003B461968D7F8542813469B0013449B00E3
:101AD0000B4403F2213309221A70D7F81C38033360
:101AE00010220021184607F07FFD0346D8B23B467E
:101AF0001968D7F8542813469B0013449B000B44E5
:101B000003F5487302461A70D7F81C3806330322CF
:101B1000D849184607F0F0F90346002B0DD13B4693
:101B20001B6803F14001D7F8442813465B001344B7
:101B30005B000B44FF221A7037E00023A7F830380F
:101B40002DE0D7F81C38981DB7F830383A46D13315
:101B50001B011268134406330322194607F0CCF91F
:101B60000346002B16D13B461B6803F14001D7F812
:101B7000442813465B0013445B000B44B7F830283D
:101B80003946096812010A4402F61B52127852B211
:101B90001A700AE0B7F830380133A7F83038B7F8D0
:101BA0003028D7F83C389A42CBDBD7F81C380B33B7
:101BB0000A220021184607F017FD034618463B4647
:101BC0001968D7F8542813469B0013449B000B4414
:101BD00003F5477318603B461B6803F14001D7F8D3
:101BE000442813465B0013445B0019443B461868C5
:101BF000D7F8542813469B0013449B00034403F575
:101C000046731960D7F844380133C7F84438A4E262
:101C10003B461968D7F8542813469B0013449B0091
:101C20000B4403F221330A221A70D7F81C3803330D
:101C300010220021184607F0D7FC0346D8B23B46D5
:101C40001968D7F8542813469B0013449B000B4493
:101C500003F5487302461A70D7F81C38063303227E
:101C60008449184607F048F90346002B0DD13B463E
:101C70001B6803F17001D7F8402813465B0013443A
:101C80009B000B44FF221A7037E00023A7F82E3880
:101C90002DE0D7F81C38981DB7F82E383A46D133C6
:101CA0001B011268134406330322194607F024F976
:101CB0000346002B16D13B461B6803F17001D7F891
:101CC000402813465B0013449B000B44B7F82E28B2
:101CD0003946096812010A4402F61B52127852B2C0
:101CE0001A700AE0B7F82E380133A7F82E38B7F883
:101CF0002E28D7F83C389A42CBDBD7F81C380B3368
:101D00000A220021184607F06FFC034698B23B46B2
:101D10001968D7F8402813465B0013449B000B4416
:101D2000723302461A803B461B6803F17001D7F8F4
:101D3000402813465B0013449B0019443B46186837
:101D4000D7F8542813469B0013449B00034403F523
:101D500046731960D7F840380133C7F84038FCE1C2
:101D60003B461968D7F8542813469B0013449B0040
:101D70000B4403F2213307221A70D7F81C380333BF
:101D800010220021184607F02FFC0346D8B23B462C
:101D90001968D7F8542813469B0013449B000B4442
:101DA00003F5487302461A70D7F81C38063303222D
:101DB0003049184607F0A0F80346002B0AD13B46ED
:101DC0001968D7F84C2813465B0013440B44FF22D4
:101DD0001A7034E00023A7F82C382AE0D7F81C3812
:101DE000981DB7F82C383A46D1331B0112681344BA
:101DF00006330322194607F07FF80346002B13D160
:101E00003B461968D7F84C2813465B0013440B4433
:101E1000B7F82C283946096812010A4402F61B5209
:101E2000127852B21A700AE0B7F82C380133A7F8CA
:101E30002C38B7F82C28D7F83C389A42CEDB3B46F2
:101E40001968D7F84C2813465B00134419443B46E5
:101E50001868D7F8542813469B0013449B0003448A
:101E600003F546731960D7F84C380133C7F84C387E
:101E700073E100BF18AD00083B461968D7F8542835
:101E800013469B0013449B000B4403F221330822AA
:101E90001A70D7F81C38033310220021184607F0B7
:101EA000A3FB0346D8B23B461968D7F8542813461B
:101EB0009B0013449B000B4403F5487302461A70C1
:101EC000D7F81C3806330322A749184607F014F840
:101ED0000346002B0BD13B461968D7F84828134618
:101EE0009B0013440B441833FF221A7036E0002382
:101EF000A7F82A382CE0D7F81C38981DB7F82A38EC
:101F00003A46D1331B0112681344063303221946A3
:101F100006F0F2FF0346002B15D1B7F82A383A46EF
:101F200012681B01134403F61B531B7858B23B463F
:101F30001968D7F8482813469B0013440B441833FC
:101F400002461A700AE0B7F82A380133A7F82A388F
:101F5000B7F82A28D7F83C389A42CCDBD7F81C3897
:101F6000063303228049184606F0C6FF0346002BBD
:101F70000BD13B461968D7F8482813469B001344F9
:101F80000B441933FF221A7037E00023A7F82838D2
:101F90002DE0D7F81C3803F10B00B7F828383A4683
:101FA000D1331B011268134406330322194606F08D
:101FB000A3FF0346002B15D1B7F828383A4612681C
:101FC0001B01134403F61B531B7858B23B46196898
:101FD000D7F8482813469B0013440B441933024694
:101FE0001A700AE0B7F828380133A7F82838B7F88C
:101FF0002828D7F83C389A42CBDB3B461B6803F1D4
:102000001801D7F8482813469B00134419443B464F
:102010001868D7F8542813469B0013449B000344C8
:1020200003F546731960D7F848380133C7F84838C4
:1020300093E03B461968D7F8542813469B00134495
:102040009B000B4403F2213302221A70D7F81C388C
:10205000033310220021184607F0C6FA0346D8B20F
:102060003B461968D7F8542813469B0013449B003D
:102070000B4403F5487302461A70D7F81C3808332E
:1020800007F10C010A22184607F0AEFA3B46196820
:10209000D7F850281346DB001344DB000B44D83339
:1020A000186007F10C031B68013307F10C010A22C9
:1020B000184607F099FA3B461968D7F85028134696
:1020C000DB001344DB000B44D433186007F10C032E
:1020D0001B68013307F10C010A22184607F084FA45
:1020E0003B461968D7F850281346DB001344DB0041
:1020F0000B44FC33186007F10C031B6801330A2200
:102100000021184607F070FA3B461968D7F85028A6
:102110001346DB001344DB000B44F83318603B46E6
:102120001B6803F1D001D7F850281346DB00134495
:10213000DB0019443B461868D7F8542813469B0027
:1021400013449B00034403F546731960D7F85038D5
:102150000133C7F8503800E000BFD7F854380133D6
:10216000C7F854385BE000BF18AD000807F10C0356
:1021700010221946D7F81C0807F036FA034618460D
:102180003B461968D7F8542813469B0013449B001C
:102190000B4403F54573186007F10C031B6801330A
:1021A00007F10C010A22184607F01EFA0346D8B2BE
:1021B0003B461968D7F8542813469B0013449B00EC
:1021C0000B4403F5487302461A7007F10C031B68B1
:1021D000013307F10C010A22184607F005FA0346FD
:1021E00018463B461968D7F8542813469B001344F9
:1021F0009B000B4403F5477318603B461968D7F8FA
:10220000542813469B0013449B000B4403F22133D4
:1022100001221A70D7F854380133C7F85438D7F868
:1022200034380133C7F83438D7F83838013307F178
:1022300010021B0113440C331A68D7F834389A4241
:102240003FF75AAA3B461B6803F544723B461968A0
:10225000D7F83C38D1331B010B4404331B88194693
:10226000D7F854385B1A19460B469B000B449B0069
:102270001A443B461968D7F83C38D1331B010B444C
:102280001A60D7F83C380133C7F83C38D7F83838EB
:10229000013307F110021B0113440C331B68013397
:1022A000D7F838281344C7F8383800E000BFD7F80B
:1022B00038380133C7F83838D7F83828D7F82438F1
:1022C0009A42FFF6ABA9D7F83C38184607F65C07E8
:1022D000BD4690BD80B485B000AF0346FB800023AF
:1022E000FB810FE0FB890C4A32F82330FA889A42CE
:1022F00005D1FB89084A9B0013449B7806E0FB89C3
:102300000133FB81FB89FF2BECD9002318461437DE
:10231000BD465DF8047B70474402002080B582B062
:1023200000AF7860786806F041FA01231846083754
:10233000BD4680BD80B58CB000AF786007F10C035E
:1023400024220021184606F0F1FD07F10C0318467F
:1023500006F02CFA7A697B689B689A420BD13A693D
:102360007B685B689A4206DB7A697B68DB6A9A4223
:1023700001DA012318E07A697B689B689A4206DDDE
:102380007A697B68DB6A9A4201DA01230CE07A6998
:102390007B68DB6A9A4206D13A697B689B6A9A42FB
:1023A00001DC012300E0002318463037BD4680BD24
:1023B00080B58CB000AF0346FB8007F10C032422EC
:1023C0000021184606F0B2FD07F10C03184606F08E
:1023D000EDF9FA887B6A42FA03F303F00103002B5C
:1023E00001D0012300E0002318463037BD4680BDF0
:1023F00080B582B000AF7860084800F08FF90748D8
:1024000005F01CFB0221064805F0A8FB054A7B6885
:10241000136000BF0837BD4680BD00BF686E012055
:102420001CAD00084406002080B500AF4FF4806268
:102430000021024806F07AFD00BF80BD6C7E0120BD
:1024400090B585B000AF78600B467B80104800F0F7
:10245000AEF902467B881344FB607B68002B12D0E8
:10246000F868FDF7BFFE04467868FDF7BBFE03463B
:102470009C4208D37968F86807F008F80346002BF7
:1024800001D0012300E0002318461437BD4690BD5B
:10249000686E012080B582B000AF78600B467B800B
:1024A00012E000217868FFF7CBFF0346002B04D031
:1024B0000B4800F062F901230DE00A4B1B68012074
:1024C00098477B88013B7B807B88002BE9D10448BF
:1024D00000F053F9002318460837BD4680BD00BF01
:1024E000686E01204406002080B500AF024800F06D
:1024F0005EF90346184680BD686E012080B500AFC6
:102500000821034805F02AFB0123184680BD00BFBF
:1025100030AD000880B582B000AF0346FB71FFF715
:1025200083FFFB791A461549154806F063FF1548E5
:1025300000F023F91248FDF755FE034619461048EE
:1025400005F00CFB4FF4FA610F48FFF7A3FF0346B9
:10255000002B0ED008210D4805F000FB4FF4FA6166
:102560000B48FFF797FF0346002B01D0012301E042
:1025700000BF002318460837BD4680BD3CAD0008AB
:102580006C7E0120686E01204CAD000830AD000863
:1025900050AD000880B582B000AF786039607B68CC
:1025A000002B1FD03B68002B1CD0FFF73DFF3B6882
:1025B0007A680F490F4806F01DFF0F4800F0DDF85C
:1025C0000C48FDF70FFE034619460A4805F0C6FA07
:1025D00042F210710948FFF75DFF0346002B01D05E
:1025E000012300E0002318460837BD4680BD00BF28
:1025F00068AD00086C7E0120686E01204CAD0008BB
:1026000090B587B000AFF8607A603B600B467B8185
:10261000FFF70AFF7B89FA683749384806F0EAFE77
:10262000374800F0AAF83548FDF7DCFD03461946A7
:10263000324805F093FA334B1B684FF47A70984791
:102640004FF47A713048FFF725FF0346002B3AD04C
:10265000FFF7EAFE3A682D49284806F0CBFE2848E5
:1026600000F08BF82548FDF7BDFD034619462348C9
:1026700005F074FA234B1B680A2098474FF47A71CF
:102680002348FFF707FF0346002B2FD07B68002B62
:102690002CD000237B6109E07B697A6813441B78A6
:1026A000184605F043FA7B6901337B617A693B6820
:1026B0009A42F1D397F82830002B17D00221154801
:1026C00005F04CFA12E0FFF7AFFE0C4A124B14462D
:1026D00007CB20606160A2601B88A3810748FDF7DB
:1026E00081FD03461946054805F038FA01231846CE
:1026F0001C37BD4690BD00BFA0AD00086C7E012018
:10270000686E0120440600204CAD0008BCAD0008F6
:10271000D0AD00081CAD0008D4AD000880B483B073
:1027200000AF78607B6800225A807B685A887B689B
:102730001A8000BF0C37BD465DF8047B704780B43B
:1027400083B000AF78600B46FB707B681B885A1C17
:1027500091B27A6811801A467B681344FA781A712C
:102760007B681B88C3F30B039AB27B681A8000BF97
:102770000C37BD465DF8047B704780B582B000AF72
:1027800078607B6804334FF480520021184606F0CD
:10279000CDFB7B6800221A717B6800221A807B685F
:1027A0001A887B685A8000BF0837BD4680BD80B458
:1027B00083B000AF78607B68043318460C37BD46A1
:1027C0005DF8047B7047000080B500AF0E4A0E4BE9
:1027D0001B6843F4007313600B4A0B4B1B6843F4F4
:1027E00080631360084A084B1B6843F480731360CE
:1027F000032000F0CAF8002006F062F906F034F970
:102800000023184680BD00BF003C024080B400AFEA
:10281000064B1B781A46064B1B681344044A136088
:1028200000BFBD465DF8047B704700BF000000207C
:102830006C82012080B485B000AF78607B6803F0C3
:102840000703FB600C4BDB68BB60BA684FF6FF0305
:102850001340BB60FB681A02BB68134343F0BF63BD
:1028600043F40033BB60044ABB68D36000BF143735
:10287000BD465DF8047B704700ED00E080B400AF1A
:10288000044BDB681B0A03F007031846BD465DF8DE
:10289000047B704700ED00E080B483B000AF0346D6
:1028A000FB7197F90730002B0BDB094997F90730CB
:1028B0005B09FA7902F01F02012000FA02F241F8E6
:1028C000232000BF0C37BD465DF8047B704700BF76
:1028D00000E100E080B483B000AF03463960FB71D3
:1028E00097F90730002B0ADB0D4997F907303A6852
:1028F000D2B21201D2B20B4483F800230AE0094994
:10290000FB7903F00F03043B3A68D2B21201D2B252
:102910000B441A7600BF0C37BD465DF8047B704748
:1029200000E100E000ED00E080B489B000AFF860A5
:10293000B9607A60FB6803F00703FB61FB69C3F1D0
:102940000703042B28BF0423BB61FB690433062B58
:1029500002D9FB69033B00E000237B610122BB69D4
:1029600002FA03F35A1EBB681A407B699A400121A0
:102970007B6901FA03F3591E7B680B401343184629
:102980002437BD465DF8047B704780B582B000AF48
:1029900078607868FFF74EFF00BF0837BD4680BDFE
:1029A00080B586B000AF0346B9607A60FB73002340
:1029B0007B61FFF763FF78617A68B9687869FFF730
:1029C000B3FF024697F90F3011461846FFF782FF12
:1029D00000BF1837BD4680BD80B582B000AF03464A
:1029E000FB7197F907301846FFF756FF00BF08370D
:1029F000BD4680BD80B400AF034B1B681846BD4682
:102A00005DF8047B704700BF0C00002080B500AF6C
:102A1000FFF7F0FF0146054B9B685B0B03F00703D4
:102A2000034AD35C21FA03F3184680BD0038024004
:102A30002CB0000880B483B000AF786039607B6848
:102A40000F221A60124B9B6803F003027B685A60E6
:102A50000F4B9B6803F0F0027B689A600C4B9B68FD
:102A600003F4E0527B68DA60094B9B68DB0803F4EF
:102A7000E0527B681A61074B1B6803F00F023B684A
:102A80001A6000BF0C37BD465DF8047B704700BF7D
:102A900000380240003C024080B582B000AF786050
:102AA0007B68002B01D101231DE07B6893F83D304A
:102AB000DBB2002B06D17B68002283F83C207868CB
:102AC00000F015F87B68022283F83D207B681A68C5
:102AD0007B6804331946104600F068F97B680122D0
:102AE00083F83D20002318460837BD4680BD80B4DA
:102AF00083B000AF786000BF0C37BD465DF8047B43
:102B0000704780B485B000AF78607B681B687A68D6
:102B10001268D26842F00102DA607B681B689B6829
:102B200003F00703FB60FB68062B07D07B681B687C
:102B30007A681268126842F001021A60002318468F
:102B40001437BD465DF8047B704780B582B000AF96
:102B500078607B681B681B6903F00203022B22D19B
:102B60007B681B68DB6803F00203022B1BD17B68C8
:102B70001B686FF002021A617B6801221A777B687A
:102B80001B689B6903F00303002B03D0786800F0F7
:102B9000EEF805E0786800F0E0F8786800F0F1F809
:102BA0007B6800221A777B681B681B6903F00403AB
:102BB000042B22D17B681B68DB6803F00403042B21
:102BC0001BD17B681B686FF004021A617B680222CC
:102BD0001A777B681B689B6903F44073002B03D052
:102BE000786800F0C4F805E0786800F0B6F8786816
:102BF00000F0C7F87B6800221A777B681B681B69A6
:102C000003F00803082B22D17B681B68DB6803F004
:102C10000803082B1BD17B681B686FF008021A6140
:102C20007B6804221A777B681B68DB6903F0030367
:102C3000002B03D0786800F09AF805E0786800F07F
:102C40008CF8786800F09DF87B6800221A777B6822
:102C50001B681B6903F01003102B22D17B681B68D3
:102C6000DB6803F01003102B1BD17B681B686FF02F
:102C700010021A617B6808221A777B681B68DB697F
:102C800003F44073002B03D0786800F070F805E07F
:102C9000786800F062F8786800F073F87B680022CA
:102CA0001A777B681B681B6903F00103012B0ED1A7
:102CB0007B681B68DB6803F00103012B07D17B688D
:102CC0001B686FF001021A61786805F013FC7B68DD
:102CD0001B681B6903F08003802B0ED17B681B6887
:102CE000DB6803F08003802B07D17B681B686FF0E3
:102CF00080021A61786800F003F97B681B681B6921
:102D000003F04003402B0ED17B681B68DB6803F0A7
:102D10004003402B07D17B681B686FF040021A61AB
:102D2000786800F038F87B681B681B6903F02003A3
:102D3000202B0ED17B681B68DB6803F02003202B5F
:102D400007D17B681B686FF020021A61786800F079
:102D5000CDF800BF0837BD4680BD80B483B000AF5A
:102D6000786000BF0C37BD465DF8047B704780B4C7
:102D700083B000AF786000BF0C37BD465DF8047BC0
:102D8000704780B483B000AF786000BF0C37BD4699
:102D90005DF8047B704780B483B000AF786000BFFB
:102DA0000C37BD465DF8047B7047000080B485B0E9
:102DB00000AF786039607B681B68FB607B68404AC5
:102DC000934213D07B68B3F1804F0FD07B683D4AAC
:102DD00093420BD07B683C4A934207D07B683B4AC6
:102DE000934203D07B683A4A934208D1FB6823F0B0
:102DF0007003FB603B685B68FA681343FB607B68A9
:102E00002F4A93422BD07B68B3F1804F27D07B6849
:102E10002C4A934223D07B682B4A93421FD07B6875
:102E20002A4A93421BD07B68294A934217D07B6879
:102E3000284A934213D07B68274A93420FD07B687D
:102E4000264A93420BD07B68254A934207D07B6881
:102E5000244A934203D07B68234A934208D1FB68FB
:102E600023F44073FB603B68DB68FA681343FB6044
:102E7000FB6823F080023B685B691343FB607B685F
:102E8000FA681A603B689A687B68DA623B681A687D
:102E90007B689A627B680A4A934203D07B680C4A3B
:102EA000934203D13B681A697B681A637B680122ED
:102EB0005A6100BF1437BD465DF8047B704700BF00
:102EC000000001400004004000080040000C0040E9
:102ED000000401400040014000440140004801401E
:102EE00000180040001C00400020004080B483B067
:102EF00000AF786000BF0C37BD465DF8047B7047BB
:102F000080B483B000AF786000BF0C37BD465DF879
:102F1000047B704780B489B000AFF860B9607A6014
:102F2000FB681A68BB687B617B6993FAA3F33B611A
:102F30003B69B3FA83F3DBB25B00032101FA03F3CD
:102F4000DB431A40BB68FB61FB6993FAA3F3BB61E7
:102F5000BB69B3FA83F3DBB25B00796801FA03F370
:102F60001A43FB681A6000BF2437BD465DF8047B36
:102F7000704780B485B000AFF860B9607A60FB68D4
:102F80005A68BB68DB431A40BB68796801FB03F3EE
:102F90001A43FB685A6000BF1437BD465DF8047BD6
:102FA000704780B489B000AFF860B9607A60FB68A0
:102FB0009A68BB687B617B6993FAA3F33B613B69C9
:102FC000B3FA83F3DBB25B00032101FA03F3DB43C3
:102FD0001A40BB68FB61FB6993FAA3F3BB61BB6951
:102FE000B3FA83F3DBB25B00796801FA03F31A43A7
:102FF000FB689A6000BF2437BD465DF8047B7047CC
:1030000080B489B000AFF860B9607A60FB68DA68B4
:10301000BB687B617B6993FAA3F33B613B69B3FABD
:1030200083F3DBB25B00032101FA03F3DB431A40B5
:10303000BB68FB61FB6993FAA3F3BB61BB69B3FA9D
:1030400083F3DBB25B00796801FA03F31A43FB6890
:10305000DA6000BF2437BD465DF8047B704780B45A
:1030600089B000AFF860B9607A60FB681A6ABB6823
:103070007B617B6993FAA3F33B613B69B3FA83F30A
:10308000DBB29B000F2101FA03F3DB431A40BB685C
:10309000FB61FB6993FAA3F3BB61BB69B3FA83F3EA
:1030A000DBB29B00796801FA03F31A43FB681A62EA
:1030B00000BF2437BD465DF8047B704780B489B0FB
:1030C00000AFF860B9607A60FB685A6ABB681B0A97
:1030D0007B617B6993FAA3F33B613B69B3FA83F3AA
:1030E000DBB29B000F2101FA03F3DB431A40BB68FC
:1030F0001B0AFB61FB6993FAA3F3BB61BB69B3FADB
:1031000083F3DBB29B00796801FA03F31A43FB688F
:103110005A6200BF2437BD465DF8047B704780B516
:1031200088B000AF786039600023FB610023BB6189
:103130003B681B687B617B6993FAA3F33B613B6946
:10314000B3FA83F3DBB2FB6150E03B681A680121FC
:10315000FB6901FA03F31340BB61BB69002B42D04A
:103160003B685B68012B03D03B685B68022B0DD189
:103170003B689B681A46B9697868FFF712FF3B689D
:10318000DB681A46B9697868FFF7F3FE3B681B698C
:103190001A46B9697868FFF733FF3B685B68022B12
:1031A0001AD1BB69FB60FB6893FAA3F3BB60BB68F1
:1031B000B3FA83F3DBB2072B07D83B685B691A4687
:1031C000B9697868FFF74BFF06E03B685B691A4610
:1031D000B9697868FFF772FF3B685B681A46B9699E
:1031E0007868FFF797FEFB690133FB613B681A685B
:1031F000FB6922FA03F3002BA7D1002318462037DE
:10320000BD4680BD80B400AF044B9B6803F00C0347
:103210001846BD465DF8047B704700BF0038024089
:1032200080B400AF044B9B6803F0F0031846BD4622
:103230005DF8047B704700BF0038024080B400AFE7
:10324000044B9B6803F4E0531846BD465DF8047BCD
:10325000704700BF0038024080B400AF044B9B6849
:1032600003F460431846BD465DF8047B704700BF19
:103270000038024080B400AF044B5B6803F4800365
:103280001846BD465DF8047B704700BF0038024019
:1032900080B400AF044B5B689B09C3F30803184676
:1032A000BD465DF8047B70470038024080B400AF33
:1032B000044B5B6803F440331846BD465DF8047B5D
:1032C000704700BF0038024080B400AF044B5B6819
:1032D00003F03F031846BD465DF8047B704700BF0E
:1032E0000038024080B582B000AF786000F020F86E
:1032F00002467B681A607B681B68184600F03EF83F
:1033000002467B685A607B685B68184600F04CF8A0
:1033100002467B689A607B685B68184600F058F844
:1033200002467B68DA6000BF0837BD4680BD0000FA
:1033300080B582B000AF00237B60FFF763FF0346D8
:10334000042B06D0082B07D0002B0AD1094B7B6039
:103350000AE0094B7B6007E0082000F04DF8786038
:1033600002E0044B7B6000BF7B6818460837BD460F
:1033700080BD00BF0024F40000127A0080B582B046
:1033800000AF7860FFF74CFF03461B0903F00F0303
:10339000044AD35C1A467B68D34018460837BD46BA
:1033A00080BD00BF1CB0000880B582B000AF78605F
:1033B000FFF744FF03469B0A044AD35C1A467B6826
:1033C000D34018460837BD4680BD00BF2CB000086A
:1033D00080B582B000AF7860FFF73EFF03465B0B1D
:1033E000044AD35C1A467B68D34018460837BD466A
:1033F00080BD00BF2CB0000890B587B000AF7860EA
:1034000000237B610023FB6000233B61FFF732FF59
:10341000F860FB68002B03D0B3F5800F03D005E004
:10342000124B7B6105E0124B7B6102E00F4B7B612D
:1034300000BF7B68082B13D1FFF746FF02467B696C
:10344000B3FBF2F4FFF724FF034603FB04F4FFF79A
:103450002DFF03461B0C01335B00B4FBF3F33B6110
:103460003B6918461C37BD4690BD00BF0024F400E0
:1034700000127A0080B483B000AF786039607B6856
:103480009B6823F040023B681A437B689A6000BF48
:103490000C37BD465DF8047B704780B483B000AF45
:1034A00078607B689B6803F0400318460C37BD4684
:1034B0005DF8047B704780B483B000AF78607B68B0
:1034C0004FF0FF32DA6000BF0C37BD465DF8047B79
:1034D000704780B483B000AF78607B686FF0800283
:1034E000DA6000BF0C37BD465DF8047B704780B4DE
:1034F00083B000AF78607B689B6803F02003202BCB
:103500000CBF01230023DBB218460C37BD465DF823
:10351000047B704780B483B000AF786039607B680B
:103520001B6923F4FE023B681B041A437B681A6183
:1035300000BF0C37BD465DF8047B704780B483B094
:1035400000AF786039607B681B6923F4FF4323F088
:103550007F033A681A437B681A6100BF0C37BD4687
:103560005DF8047B704780B483B000AF78607B68FF
:10357000FF225A6200BF0C37BD465DF8047B7047DE
:1035800080B483B000AF78607B68CA225A627B68DF
:1035900053225A6200BF0C37BD465DF8047B70476A
:1035A00090B484B000AFF860B9607A603B607B682B
:1035B0001B0403F47F02BB681A433B681B029BB2E7
:1035C0001A43BB69DBB242EA0304FB681B6823F0C1
:1035D0007F1323F4FE4343EA0402FB681A6000BF32
:1035E0001037BD4690BC704790B484B000AFF8600F
:1035F000B9607A603B600024BB685A03BB691B0456
:1036000003F47F031A433B681B029BB21A437B6897
:10361000DBB242EA0304FB685A68054B134043EAF5
:103620000402FB685A6000BF1037BD4690BC70476B
:10363000C00000FF80B483B000AF78607B68DB68B7
:1036400003F04003402B0CBF01230023DBB21846DC
:103650000C37BD465DF8047B704780B483B000AF83
:1036600078607B68DB6803F02003202B0CBF01230C
:103670000023DBB218460C37BD465DF8047B70476B
:1036800080B483B000AF78607B68DB6803F08003B0
:1036900063F0A0027B68DA6000BF0C37BD465DF8BE
:1036A000047B704780B400AF074B1B6803F4803382
:1036B000B3F5803F0CBF01230023DBB21846BD46A3
:1036C0005DF8047B704700BF10E000E080B584B077
:1036D00000AF786039600123FB737868FFF750FF13
:1036E000786800F071F90346012B16D03B681B681F
:1036F00019467868FFF7BEFE3B689B6819467868F4
:10370000FFF71CFF3B685B6819467868FFF702FF0C
:103710007868FFF7DEFE0023FB737868FFF723FF6E
:10372000FB7B18461037BD4680BD0000F0B589B060
:1037300002AFF860B9607A600123FB75BB68002BAB
:1037400009D1F868FFF7A9FE0346002B0CD17B686E
:1037500000221A6008E0F868FFF79FFE0346002B7E
:1037600002D17B6800221A60F868FFF709FFF86849
:1037700000F02AF90346012B73D0BB68002B0FD051
:103780007B6819687B681B791A467B685B791846E9
:103790007B689B7900930346F868FFF701FF4FE0D1
:1037A0007B681C687B681B79324AA2FB0323DB0819
:1037B000DBB21B01D8B27B681A792E4BA3FB021334
:1037C000D9080B469B000B445B00D31ADBB20343C2
:1037D000DBB21D467B685B79264AA2FB0323DB082C
:1037E000DBB21B01D8B27B685A79224BA3FB0213D0
:1037F000D9080B469B000B445B00D31ADBB2034392
:10380000DBB21E467B689B791A4AA2FB0323DB08C6
:10381000DBB21B01D8B27B689A79164BA3FB02136B
:10382000D9080B469B000B445B00D31ADBB2034361
:10383000DBB2009333462A462146F868FFF7B0FE14
:103840000D48FFF746FEF868FFF751FE0346002BD0
:1038500005D1F86800F0EDF80346FB7501E00023A0
:10386000FB75F868FFF77FFEFB7D18461C37BD46E9
:10387000F0BD00BFCDCCCCCC00280040F0B589B065
:1038800002AFF860B9607A600123FB75BB68002B5A
:103890000ED17B685B7803F01003002B08D07B68A7
:1038A0005B7823F01003DBB20A33DAB27B685A701C
:1038B000F868FFF765FEF86800F086F80346012B0C
:1038C00075D0BB68002B10D07B681B7819467B68CD
:1038D0009B781A467B685B7818467B68DB78009398
:1038E0000346F868FFF780FE50E07B681B781C46B3
:1038F0007B689B78324AA2FB0323DB08DBB21B0107
:10390000D8B27B689A782E4BA3FB0213D9080B46DA
:103910009B000B445B00D31ADBB20343DBB21D46B2
:103920007B685B78264AA2FB0323DB08DBB21B0122
:10393000D8B27B685A78224BA3FB0213D9080B46F6
:103940009B000B445B00D31ADBB20343DBB21E4681
:103950007B68DB781A4AA2FB0323DB08DBB21B017E
:10396000D8B27B68DA78164BA3FB0213D9080B4652
:103970009B000B445B00D31ADBB20343DBB2009322
:1039800033462A462146F868FFF72EFE0D48FFF71A
:10399000A0FDF868FFF7ABFD0346002B05D1F868E2
:1039A00000F047F80346FB7501E00023FB75F8685B
:1039B000FFF7D9FDFB7D18461C37BD46F0BD00BFA3
:1039C000CDCCCCCC0028004080B586B000AF78606C
:1039D0004FF47A73FB600023FB7500233B6178682A
:1039E000FFF728FE0346002B1ED17868FFF763FD22
:1039F0007868FFF71FFE386110E0FFF753FE0346BB
:103A0000012B02D1FB68013BFB607868FFF712FED7
:103A10003861FB68002B01D10123FB75FB68002B8B
:103A200002D03B69012BE8D1FB7D18461837BD4613
:103A300080BD80B586B000AF78604FF47A73FB60CC
:103A40000023FB7500233B617868FFF719FE786857
:103A5000FFF703FE386110E0FFF724FE0346012B59
:103A600002D1FB68013BFB607868FFF7F6FD386127
:103A7000FB68002B01D10123FB75FB68002B02D0F2
:103A80003B69002BE8D1FB7D012B1ED04FF47A73EC
:103A9000FB607868FFF7E1FD386110E0FFF702FE98
:103AA0000346012B02D1FB68013BFB607868FFF7FE
:103AB000D4FD3861FB68002B01D10123FB75FB6845
:103AC000002B02D03B69012BE8D1FB7D184618374B
:103AD000BD4680BD80B483B000AF78607B681B6852
:103AE00003F04003402B01D1012300E000231846DE
:103AF0000C37BD465DF8047B704780B483B000AFDF
:103B0000786039603B689BB21A467B681A6100BFD7
:103B10000C37BD465DF8047B704780B584B000AFBC
:103B2000786039600123FB737868FFF7D3FF0346A1
:103B3000002B39D17B681B6823F47F4323F0BF033C
:103B40003A6811683A68526811433A6892681143BA
:103B50003A68D26811433A68126911433A68526967
:103B600011433A68926911433A68D26911433A683D
:103B7000126A0A431A437B681A607B685B6823F009
:103B800004023B685B691B0C1A437B685A603B6804
:103B90001B6AB3F5005F05D13B685B6A194678681C
:103BA000FFF7ABFF0023FB737B68DB6923F4006244
:103BB0007B68DA61FB7B18461037BD4680BD80B458
:103BC00083B000AF78607B68DB6803F40053B3F523
:103BD000005F0CBF01230023DBB218460C37BD4643
:103BE0005DF8047B704780B483B000AF78603960C3
:103BF0007B681B6923F440523B681A437B681A6157
:103C000000BF0C37BD465DF8047B704780B483B0BD
:103C100000AF786039607B685B6923F440723B6871
:103C20001A437B685A6100BF0C37BD465DF8047BC0
:103C3000704700002DE9F04F91B000AFF863B96311
:103C40007A633B637B6BB3F5004F40F0A780BB6B9F
:103C500019464FF000020B461446DB1844EB0404EF
:103C60005B1844EB0204E60046EA5376DD002B467F
:103C700034465D1844EB0206284631463B6B4FF054
:103C80000004DB1844EB04041A462346FCF708FB47
:103C900003460C461A46A14BA3FB02235B099BB2C9
:103CA0001B019DB2BB6B19464FF000020B46144638
:103CB000DB1844EB04045B1844EB02044FEAC40B2A
:103CC0004BEA537B4FEAC30A53465C4613EB010AA7
:103CD00044EB020B504659463B6B4FF00004DB1897
:103CE00044EB04041A462346FCF7DAFA03460C4672
:103CF0001A468A4BA3FB02135B09642101FB03F301
:103D0000D31ADB003233854AA2FB03235B099BB243
:103D10005B009BB203F4F8739BB22B449DB2BB6B68
:103D200019464FF000020B461446DB1844EB04041E
:103D30005B1844EB02044FEAC40949EA53794FEA9D
:103D4000C30843464C4613EB010844EB02094046C6
:103D500049463B6B4FF00004DB1844EB04041A4661
:103D60002346FCF79DFA03460C461A466B4BA3FB11
:103D700002135B09642101FB03F3D31ADB00323326
:103D8000664AA2FB03235B099BB203F007039BB2C5
:103D90002B449BB21A46FB6B9A60BAE0BB6B194688
:103DA0004FF000020B461446DB1844EB04045B188A
:103DB00044EB0204E0007861786940EA537078616E
:103DC000DB003B61D7E904345D1844EB020628466A
:103DD00031463B6B4FF00004A200FA62FA6A42EAF5
:103DE0009372FA629B00BB62D7E90A23FCF758FA88
:103DF00003460C461A46494BA3FB02235B099BB2C0
:103E00001B019DB2BB6B19464FF000020B461446D6
:103E1000DB1844EB04045B1844EB0204E000F86098
:103E2000F86840EA5370F860DB00BB60D7E9023401
:103E300013EB010844EB0209404649463B6B4FF047
:103E40000004A2007A627A6A42EA93727A629B0064
:103E50003B62D7E90823FCF723FA03460C461A46CF
:103E60002E4BA3FB02135B09642101FB03F3D31A5E
:103E70001B013233294AA2FB03235B099BB203F0E7
:103E8000F0039BB22B449DB2BB6B19464FF000026E
:103E90000B461446DB1844EB04045B1844EB0204A5
:103EA000E0007860786840EA53707860DB003B603F
:103EB00097E8180013EB010844EB02094046494615
:103EC0003B6B4FF00004A200FA61FA6942EA937278
:103ED000FA619B00BB61D7E90623FCF7E1F90346D1
:103EE0000C461A460D4BA3FB02135B09642101FB30
:103EF00003F3D31A1B013233084AA2FB03235B09E5
:103F00009BB203F00F039BB22B449BB21A46FB6B90
:103F10009A6000BF4437BD46BDE8F08F1F85EB5166
:103F200080B588B000AF786039600123FB7700234B
:103F3000BB617868FFF743FE0346002B5ED17B68C8
:103F4000DB6823F4164323F00C033A6851683A689F
:103F5000D26811433A68126911433A6892690A4378
:103F60001A437B68DA603B689B6819467868FFF7FC
:103F70003AFE3B685B6919467868FFF747FE07F130
:103F800008031846FFF7AEF97B681F4A934202D137
:103F90007B69BB6121E07B681C4A934202D13B698B
:103FA000BB611AE07B681A4A934202D13B69BB614C
:103FB00013E07B68174A934202D17B69BB610CE036
:103FC0007B68154A934202D13B69BB6105E07B687F
:103FD000124A934201D13B69BB61BB69002B0DD0F2
:103FE0003B681B68002B09D00023FB773B689A696C
:103FF0003B681B68B9697868FFF71CFEFB7F1846B1
:104000002037BD4680BD00BF001001400044004085
:104010000048004000140140004C004000500040A7
:1040200080B483B000AF7860044A7B68136000BF3F
:104030000C37BD465DF8047B704700BF0C000020C4
:1040400080B400AF00BFBD465DF8047B7047000040
:1040500080B485B000AFEFF30583BB60BB68002B75
:104060000FD1EFF310837B607B68002B05D1EFF35A
:1040700011833B603B68002B07D00E4B1B68022B63
:1040800003D16FF00503FB600CE00A4B1B68002BAB
:1040900005D1084B01221A600023FB6002E04FF0BB
:1040A000FF33FB60FB6818461437BD465DF8047BA0
:1040B000704700BF4806002080B584B000AFEFF322
:1040C0000583BB60BB68002B0FD1EFF310837B60CF
:1040D0007B68002B05D1EFF311833B603B68002B1D
:1040E00007D00F4B1B68022B03D16FF00503FB6059
:1040F00010E00B4B1B68012B09D1FFF7A1FF084B08
:1041000002221A6001F088FC0023FB6002E04FF0FD
:10411000FF33FB60FB6818461037BD4680BD00BF0B
:104120004806002080B590B004AFF860B9607A60AE
:1041300000233B61EFF30583FB61FB69002B40F03B
:104140008F80EFF31083BB61BB69002B05D1EFF3C8
:1041500011837B617B69002B03D0444B1B68022BCE
:104160007ED0FB68002B7BD08023BB6218237B6250
:104170000023FB624FF0FF333B627B68002B45D08E
:104180007B681B68002B02D07B681B68FB627B6826
:104190009B69002B02D07B689B697B627B6A002B4A
:1041A00008D07B6A382B05D87B685B6803F0010375
:1041B000002B01D0002354E07B685B69002B03D007
:1041C0007B685B699B08BB627B689B68002B0ED099
:1041D0007B68DB685B2B0AD97B681B69002B06D0E8
:1041E0007B685B69002B02D001233B6210E07B6897
:1041F0009B68002B0CD17B68DB68002B08D17B68A7
:104200001B69002B04D100233B6201E000233B62C9
:104210003B6A012B10D17B681B697A689268029215
:1042200001937B6A0093BB68BA6AF96AF86801F087
:1042300021FA03463B6113E03B6A002B10D1BB6AB5
:104240009AB207F1100301937B6A0093BB68F96A85
:10425000F86801F069FA0346012B01D000233B61A5
:104260003B6918463037BD4680BD00BF4806002078
:1042700080B586B000AF7860EFF305833B613B69A2
:10428000002B0FD1EFF31083FB60FB68002B05D1EF
:10429000EFF31183BB60BB68002B07D00A4B1B6890
:1042A000022B03D16FF005037B6107E000237B61E4
:1042B0007B68002B02D0786801F07AFB7B69184696
:1042C0001837BD4680BD00BF4806002080B485B0C9
:1042D00000AFF860B9607A60FB68074A1A60BB6893
:1042E000064A1A607B6880221A6000BF1437BD46F8
:1042F0005DF8047B704700BF4C060020A806002034
:1043000080B485B000AFF860B9607A60FB68074A96
:104310001A60BB68064A1A607B684FF480721A60A4
:1043200000BF1437BD465DF8047B7047A808002025
:104330000409002080B483B000AF78607B6803F18B
:1043400008027B685A607B684FF0FF329A607B6896
:1043500003F108027B68DA607B6803F108027B687E
:104360001A617B6800221A6000BF0C37BD465DF8F9
:10437000047B704780B483B000AF78607B68002214
:104380001A6100BF0C37BD465DF8047B704780B4EE
:1043900085B000AF786039607B685B68FB603B6824
:1043A000FA685A60FB689A683B689A60FB689B6889
:1043B0003A685A60FB683A689A603B687A681A61A2
:1043C0007B681B685A1C7B681A6000BF1437BD46A7
:1043D0005DF8047B704780B485B000AF78603960C9
:1043E0003B681B68BB60BB68B3F1FF3F03D17B68D0
:1043F0001B69FB600CE07B680833FB6002E0FB6834
:104400005B68FB60FB685B681A68BB689A42F6D918
:10441000FB685A683B685A603B685B683A689A6018
:104420003B68FA689A60FB683A685A603B687A6849
:104430001A617B681B685A1C7B681A6000BF1437BE
:10444000BD465DF8047B704780B485B000AF7860EE
:104450007B681B69FB607B685B687A6892689A601E
:104460007B689B687A6852685A60FB685A687B6808
:104470009A4203D17B689A68FB685A607B68002285
:104480001A61FB681B685A1EFB681A60FB681B6890
:1044900018461437BD465DF8047B704780B485B07C
:1044A00000AFF860B9607A60FB68043BFB60FB68B2
:1044B0004FF080721A60FB68043BFB60BB6823F01E
:1044C0000102FB681A60FB68043BFB600C4AFB6856
:1044D0001A60FB68143BFB607A68FB681A60FB6833
:1044E000043BFB60FB686FF002021A60FB68203B34
:1044F000FB60FB6818461437BD465DF8047B7047C7
:104500000545000880B485B000AF00237B60114BE7
:104510001B68B3F1FF3F09D04FF0500383F31188BC
:10452000BFF36F8FBFF34F8FFB60FEE74FF0500379
:1045300083F31188BFF36F8FBFF34F8FBB6000BF52
:104540007B68002BFCD000BF1437BD465DF8047BB0
:10455000704700BF040000200000000000000000C1
:10456000074B19680868B0E8F04F80F30988BFF37B
:104570006F8F4FF0000080F311887047AFF3008019
:104580002485002000BF00BF08480068006880F351
:1045900008884FF0000080F3148862B661B6BFF35C
:1045A0004F8FBFF36F8F00DF00BF00BF08ED00E04B
:1045B00080B586B000AF444B1B68444A934209D192
:1045C0004FF0500383F31188BFF36F8FBFF34F8F0A
:1045D0003B61FEE73C4B1B683D4A934209D14FF0DB
:1045E000500383F31188BFF36F8FBFF34F8FFB60CE
:1045F000FEE7384B7B617B691B78DBB27B607B69B4
:10460000FF221A707B691B78DBB2FB70FB78DBB290
:1046100003F05003DAB2304B1A70304B07221A60A5
:1046200009E02E4B1B68013B2C4A1360FB78DBB280
:104630005B00DBB2FB70FB78DBB203F08003802B06
:10464000EFD0264B1B68C3F10703042B09D04FF0B2
:10465000500383F31188BFF36F8FBFF34F8FBB609D
:10466000FEE71E4B1B681B021C4A13601B4B1B689A
:1046700003F4E063194A13607B68DAB27B691A704D
:10468000174A174B1B6843F470031360144A144B0A
:104690001B6843F07043136000F0D6F8114B002202
:1046A0001A6000F0F5F8104A0F4B1B6843F04043C6
:1046B0001360FFF769FF01F085FBFFF723FF00237D
:1046C00018461837BD4680BD00ED00E071C20F41AD
:1046D00070C20F4100E400E0040D0020080D00202E
:1046E00020ED00E00400002034EF00E080B483B04F
:1046F00000AF4FF0500383F31188BFF36F8FBFF308
:104700004F8F7B600E4B1B6801330D4A13600C4BBF
:104710001B68012B0ED10B4B1B68DBB2002B09D0A1
:104720004FF0500383F31188BFF36F8FBFF34F8FA8
:104730003B60FEE700BF0C37BD465DF8047B704769
:104740000400002004ED00E080B483B000AF114B02
:104750001B68002B09D14FF0500383F31188BFF37E
:104760006F8FBFF34F8F7B60FEE70A4B1B68013BE7
:10477000084A1360074B1B68002B04D100233B60E1
:104780003B6883F3118800BF0C37BD465DF8047B9E
:10479000704700BF0400002000000000000000007F
:1047A000EFF30980BFF36F8F154B1A681EF0100FDF
:1047B00008BF20ED108A20E9F04F10602DE90900B4
:1047C0004FF0500080F31188BFF34F8FBFF36F8F0E
:1047D00001F0F8FA4FF0000080F3118809BC196865
:1047E0000868B0E8F04F1EF0100F08BFB0EC108A58
:1047F00080F30988BFF36F8F704700BFAFF300806D
:104800002485002000BF00BF80B582B000AF4FF00C
:10481000500383F31188BFF36F8FBFF34F8F7B601B
:1048200001F018FA0346002B03D0064B4FF08052DC
:104830001A6000233B603B6883F3118800BF083790
:10484000BD4680BD04ED00E080B400AF0B4B0022FC
:104850001A600B4B00221A600A4A0B4B1B680B496B
:10486000A1FB03139B09013B1360044B07221A6051
:1048700000BFBD465DF8047B704700BF10E000E05C
:1048800018E000E014E000E00C000020D34D6210BE
:10489000DFF80C00016841F470010160704700BF4F
:1048A00088ED00E080B485B000AFEFF30583FB60D6
:1048B000FB680F2B13D9164AFB6813441B78FB7255
:1048C000144B1B78FA7A9A4209D24FF0500383F3C3
:1048D0001188BFF36F8FBFF34F8F7B60FEE70E4BE6
:1048E0001B6803F4E0620D4B1B689A4209D94FF034
:1048F000500383F31188BFF36F8FBFF34F8F3B607B
:10490000FEE700BF1437BD465DF8047B704700BF6B
:10491000F0E300E0040D00200CED00E0080D0020A5
:1049200080B58AB000AF78600023FB6101F0D8F851
:10493000574B1B68002B01D100F00CF9554B1A683E
:104940007B681340002B40F08C807B68002B1CD0D0
:1049500008227B6813447B607B6803F00703002B0D
:1049600013D07B6823F0070308337B607B6803F078
:104970000703002B09D04FF0500383F31188BFF3D6
:104980006F8FBFF34F8F7B61FEE77B68002B68D092
:10499000414B1B687A689A4263D8404B3B623F4B5D
:1049A0001B687B6204E07B6A3B627B6A1B687B62FC
:1049B0007B6A5A687B689A4203D27B6A1B68002B29
:1049C000F1D1334B1B687A6A9A424AD03B6A1B6822
:1049D00008221344FB617B6A1A683B6A1A607B6A8F
:1049E0005A687B68D21A08235B009A421ED97A6AF9
:1049F0007B681344BB61BB6903F00703002B09D03C
:104A00004FF0500383F31188BFF36F8FBFF34F8FC5
:104A10003B61FEE77B6A5A687B68D21ABB695A60C1
:104A20007B6A7A685A60B86900F0F6F81A4B1A681F
:104A30007B6A5B68D31A184A1360174B1A68184BC5
:104A40001B689A4203D2144B1B68154A13607B6A99
:104A50005A68104B1B681A437B6A5A607B6A0022B3
:104A60001A6001F04BF8FB6903F00703002B09D033
:104A70004FF0500383F31188BFF36F8FBFF34F8F55
:104A8000FB60FEE7FB6918462837BD4680BD00BFC6
:104A90001485002020850020188500200C8500202A
:104AA0001C85002080B586B000AF78607B687B6194
:104AB0007B68002B46D008235B427A6913447B61F4
:104AC0007B693B613B695A68204B1B681340002B94
:104AD00009D14FF0500383F31188BFF36F8FBFF3F9
:104AE0004F8FFB60FEE73B691B68002B09D04FF03E
:104AF000500383F31188BFF36F8FBFF34F8FBB60F9
:104B0000FEE73B695A68114B1B681340002B19D014
:104B10003B691B68002B15D13B695A680B4B1B681E
:104B2000DB431A403B695A6000F0DAFF3B695A6880
:104B3000074B1B681344064A1360386900F06CF891
:104B400000F0DCFF00BF1837BD4680BD2085002087
:104B50001885002080B485B000AF4FF4F043BB60EF
:104B6000274BFB60FB6803F00703002B0CD0FB68AE
:104B70000733FB60FB6823F00703FB60BA68FB6840
:104B8000D31A1F4A1344BB60FB687B601D4A7B68D5
:104B900013601C4B00225A607A68BB681344FB60A8
:104BA0000822FB689B1AFB60FB6823F00703FB608D
:104BB000FB68154A1360144B1B6800225A60124BA5
:104BC0001B6800221A607B683B603B68FA68D21A57
:104BD0003B685A600C4B1A683B681A603B685B681C
:104BE0000A4A13603B685B68094A1360094B4FF03F
:104BF00000421A6000BF1437BD465DF8047B704761
:104C00000C0D00200C850020148500201C85002040
:104C1000188500202085002080B485B000AF786022
:104C2000284BFB6002E0FB681B68FB60FB681A68AE
:104C30007B689A42F7D3FB68BB60FB685B68BA6825
:104C40001A447B689A4208D1FB685A687B685B68A3
:104C50001A44FB685A60FB687B607B68BB607B68BA
:104C60005B68BA681A44FB681B689A4218D1FB68F3
:104C70001A68154B1B689A420DD07B685A68FB680E
:104C80001B685B681A447B685A60FB681B681A687B
:104C90007B681A6008E00C4B1A687B681A6003E0B6
:104CA000FB681A687B681A60FA687B689A4202D0CF
:104CB000FB687A681A6000BF1437BD465DF8047B54
:104CC000704700BF0C8500201485002080B584B09B
:104CD00000AF786039607B68FB60FB68002B09D10E
:104CE0004FF0500383F31188BFF36F8FBFF34F8FE3
:104CF000BB60FEE7FFF7FAFCFB681A68FB68DB6B3A
:104D0000F968096C01FB03F31A44FB689A60FB68BD
:104D100000229A63FB681A68FB685A60FB681A688D
:104D2000FB68DB6B013BF968096C01FB03F31A4478
:104D3000FB68DA60FB68FF2283F84420FB68FF22EF
:104D400083F845203B68002B14D1FB681B69002BBE
:104D50001AD0FB681033184601F0DEF80346002B2A
:104D600012D00D4B4FF080521A60BFF34F8FBFF33C
:104D70006F8F09E0FB6810331846FFF7DBFAFB681A
:104D800024331846FFF7D6FAFFF7DEFC0123184656
:104D90001037BD4680BD00BF04ED00E080B58EB089
:104DA00002AFF860B9607A603B60FB68002B09D104
:104DB0004FF0500383F31188BFF36F8FBFF34F8F12
:104DC000BB62FEE73B68002B09D14FF0500383F331
:104DD0001188BFF36F8FBFF34F8F7B62FEE77B6855
:104DE000002B02D0BB68002B01D0012300E0002380
:104DF000002B09D14FF0500383F31188BFF36F8F5D
:104E0000BFF34F8F3B62FEE77B68002B02D1BB688C
:104E1000002B01D1012300E00023002B09D14FF02A
:104E2000500383F31188BFF36F8FBFF34F8FFB6184
:104E3000FEE750237B617B69502B09D04FF0500374
:104E400083F31188BFF36F8FBFF34F8FBB61FEE712
:104E50007B693B68FB62FB6A002B0DD0FB6A012279
:104E600083F8462097F83820FB6A009313467A6847
:104E7000B968F86800F005F8FB6A18463037BD4697
:104E800080BD80B584B000AFF860B9607A60FB7017
:104E9000BB68002B03D1BB69BA691A6002E0BB6929
:104EA0007A681A60BB69FA68DA63BB69BA681A641F
:104EB0000121B869FFF70AFFBB69FA7883F84C2033
:104EC00000BF1037BD4680BD80B58EB000AFF86022
:104ED000B9607A603B6000237B63FB683B633B6B9C
:104EE000002B09D14FF0500383F31188BFF36F8F6C
:104EF000BFF34F8FBB62FEE7BB68002B03D13B6B58
:104F00001B6C002B01D1012300E00023002B09D1F1
:104F10004FF0500383F31188BFF36F8FBFF34F8FB0
:104F20007B62FEE73B68022B03D13B6BDB6B012B03
:104F300001D1012300E00023002B09D14FF05003E1
:104F400083F31188BFF36F8FBFF34F8F3B62FEE790
:104F500001F098F90346002B02D17B68002B01D1A8
:104F6000012300E00023002B09D14FF0500383F30D
:104F70001188BFF36F8FBFF34F8FFB61FEE7FFF721
:104F8000B5FB3B6B9A6B3B6BDB6B9A4202D33B6886
:104F9000022B29D13A68B968386B00F0FFF9F86242
:104FA0003B6B5B6A002B10D03B6B2433184600F040
:104FB000B3FF0346002B13D03F4B4FF080521A60D3
:104FC000BFF34F8FBFF36F8F0AE0FB6A002B07D050
:104FD000394B4FF080521A60BFF34F8FBFF36F8F82
:104FE000FFF7B2FB012363E07B68002B03D1FFF7DF
:104FF000ABFB00235CE07B6B002B06D107F11403B5
:10500000184600F0EBFF01237B63FFF79DFB00F0E8
:1050100067FDFFF76BFB3B6B93F844305BB2B3F17A
:10502000FF3F03D13B6B002283F844203B6B93F896
:1050300045305BB2B3F1FF3F03D13B6B002283F8F5
:105040004520FFF781FB3A1D07F11403114618466E
:1050500000F0DAFF0346002B24D1386B00F096FAFB
:105060000346002B18D03B6B10337A681146184664
:1050700000F004FF386B00F021FA00F03FFD03461A
:10508000002B7FF47CAF0C4B4FF080521A60BFF3C3
:105090004F8FBFF36F8F72E7386B00F00FFA00F09D
:1050A0002DFD6CE7386B00F009FA00F027FD0023B6
:1050B00018463837BD4680BD04ED00E080B58EB09F
:1050C00000AFF860B9607A603B60FB683B633B6BA4
:1050D000002B09D14FF0500383F31188BFF36F8F7A
:1050E000BFF34F8F7B62FEE7BB68002B03D13B6BA6
:1050F0001B6C002B01D1012300E00023002B09D100
:105100004FF0500383F31188BFF36F8FBFF34F8FBE
:105110003B62FEE73B68022B03D13B6BDB6B012B51
:1051200001D1012300E00023002B09D14FF05003EF
:1051300083F31188BFF36F8FBFF34F8FFB61FEE7DF
:10514000FFF7B0FBEFF311824FF0500383F31188A8
:10515000BFF36F8FBFF34F8FBA617B61BB69FB6297
:105160003B6B9A6B3B6BDB6B9A4202D33B68022B27
:105170002CD13B6B93F8453087F82B303A68B968EF
:10518000386B00F00BF997F92B30B3F1FF3F12D1D8
:105190003B6B5B6A002B16D03B6B2433184600F048
:1051A000BBFE0346002B0ED07B68002B0BD07B6828
:1051B00001221A6007E097F82B300133DBB25AB2B4
:1051C0003B6B83F8452001237B6301E000237B6375
:1051D000FB6A3B613B6983F311887B6B1846383768
:1051E000BD4680BD80B58CB000AFF860B9607A6014
:1051F0000023FB62FB68BB62BB6A002B09D14FF046
:10520000500383F31188BFF36F8FBFF34F8F3B625F
:10521000FEE7BB68002B03D1BB6A1B6C002B01D1DE
:10522000012300E00023002B09D14FF0500383F34A
:105230001188BFF36F8FBFF34F8FFB61FEE701F063
:1052400021F80346002B02D17B68002B01D10123FA
:1052500000E00023002B09D14FF0500383F31188A5
:10526000BFF36F8FBFF34F8FBB61FEE7FFF73EFACF
:10527000BB6A9B6B7B627B6A002B1FD0B968B86AE4
:1052800000F0F6F87B6A5A1EBB6A9A63BB6A1B6918
:10529000002B0FD0BB6A1033184600F03DFE0346CA
:1052A000002B07D03C4B4FF080521A60BFF34F8F5A
:1052B000BFF36F8FFFF748FA012369E07B68002B8B
:1052C00003D1FFF741FA002362E0FB6A002B06D10D
:1052D00007F11003184600F081FE0123FB62FFF77F
:1052E00033FA00F0FDFBFFF701FABB6A93F8443094
:1052F0005BB2B3F1FF3F03D1BB6A002283F84420C5
:10530000BB6A93F845305BB2B3F1FF3F03D1BB6A90
:10531000002283F84520FFF717FA3A1D07F1100322
:105320001146184600F070FE0346002B23D1B86AE0
:1053300000F016F90346002B17D0BB6A24337A68B5
:105340001146184600F09AFDB86A00F0B7F800F070
:10535000D5FB0346002B89D10F4B4FF080521A60CA
:10536000BFF34F8FBFF36F8F80E7B86A00F0A6F8E6
:1053700000F0C4FB7AE7B86A00F0A0F800F0BEFBCA
:10538000B86A00F0EDF80346002B3FF46FAF00233E
:1053900018463037BD4680BD04ED00E080B586B0CC
:1053A00000AFF860B9607A6000237B61FB689B6B9B
:1053B0003B61FB681B6C002B0DD1FB681B68002B4D
:1053C0004DD1FB689B68184600F07AFF7861FB6856
:1053D00000229A6043E07B68002B19D1FB68586873
:1053E000FB681B6C1A46B96803F095FDFB685A68A8
:1053F000FB681B6C1A44FB685A60FB685A68FB68C0
:105400009B689A422BD3FB681A68FB685A6026E0B7
:10541000FB68D868FB681B6C1A46B96803F07BFD13
:10542000FB68DA68FB681B6C5B421A44FB68DA6055
:10543000FB68DA68FB681B689A4207D2FB689A68C7
:10544000FB681B6C5B421A44FB68DA607B68022BCA
:1054500005D13B69002B02D03B69013B3B613B69B5
:105460005A1CFB689A637B6918461837BD4680BD95
:1054700080B582B000AF786039607B681B6C002B10
:1054800018D07B68DA687B681B6C1A447B68DA602A
:105490007B68DA687B689B689A4203D37B681A68EA
:1054A0007B68DA607B68D9687B681B6C1A46386851
:1054B00003F031FD00BF0837BD4680BD80B584B024
:1054C00000AF7860FFF712F97B6893F84530FB7303
:1054D00011E07B685B6A002B12D07B68243318468E
:1054E00000F01AFD0346002B01D000F0EDFDFB7B20
:1054F000013BDBB2FB7397F90F30002BE9DC00E0D6
:1055000000BF7B68FF2283F84520FFF71DF9FFF7F6
:10551000EDF87B6893F84430BB7311E07B681B693E
:10552000002B12D07B681033184600F0F5FC0346C0
:10553000002B01D000F0C8FDBB7B013BDBB2BB738D
:1055400097F90E30002BE9DC00E000BF7B68FF22FA
:1055500083F84420FFF7F8F800BF1037BD4680BD40
:1055600080B584B000AF7860FFF7C0F87B689B6BB4
:10557000002B02D10123FB6001E00023FB60FFF759
:10558000E3F8FB6818461037BD4680BD80B584B08F
:1055900000AF7860FFF7AAF87B689A6B7B68DB6BDB
:1055A0009A4202D10123FB6001E00023FB60FFF778
:1055B000CBF8FB6818461037BD4680BD80B485B077
:1055C00000AF786039600023FB6014E00E4AFB688E
:1055D00052F83330002B0BD10B49FB683A6841F885
:1055E0003320094AFB68DB0013447A685A6005E0FF
:1055F000FB680133FB60FB68072BE7D900BF14375A
:10560000BD465DF8047B70477082012080B586B08E
:1056100000AFF860B9607A60FB687B61FFF766F8FD
:105620007B6993F844305BB2B3F1FF3F03D17B69F0
:10563000002283F844207B6993F845305BB2B3F1D4
:10564000FF3F03D17B69002283F84520FFF77CF8F8
:105650007B699B6B002B06D17B6924337A68B96820
:10566000184600F02FFC7869FFF728FF00BF1837B5
:10567000BD4680BD80B58EB004AFF860B9607A6079
:105680003B607B6B002B09D14FF0500383F31188F3
:10569000BFF36F8FBFF34F8F3B62FEE7BB6B002BF7
:1056A00009D14FF0500383F31188BFF36F8FBFF31D
:1056B0004F8FFB61FEE75C233B613B695C2B09D0AC
:1056C0004FF0500383F31188BFF36F8FBFF34F8FF9
:1056D000BB61FEE73B69BB6B002B1ED07B6B002BD5
:1056E0001BD0BB6B7B627B6A7A6B1A637B6A02227C
:1056F00083F85920002303937B6A029307F1140374
:1057000001933B6B00933B687A68B968F86800F0D6
:1057100050F8786A00F0DCF801E000237B617B69D7
:1057200018462837BD4680BD80B58CB004AFF86000
:10573000B9603B601346FB80FB889B001846FFF76F
:10574000EFF878617B69002B0ED05C20FFF7E8F85A
:10575000F861FB69002B03D0FB697A691A6305E0E5
:105760007869FFF79FF901E00023FB61FB69002BDB
:1057700017D0FB69002283F85920FA88002303938D
:10578000FB690293FB6A0193BB6A00933B68B968AB
:10579000F86800F00EF8F86900F09AF80123BB6190
:1057A00002E04FF0FF33BB61BB6918462037BD46AE
:1057B00080BD80B588B000AFF860B9607A603B60AA
:1057C0003B6B186B7B689B001A46A52103F0AEFB70
:1057D0003B6B1A6B7B6803F18043013B9B001344D6
:1057E000BB61BB6923F00703BB61BB6903F007031F
:1057F000002B09D04FF0500383F31188BFF36F8F54
:10580000BFF34F8F7B61FEE7BB68002B1FD00023E7
:10581000FB6112E0BA68FB69134419783A6BFB69C3
:10582000134434330A461A70BA68FB6913441B7870
:10583000002B06D0FB690133FB61FB690F2BE9D913
:1058400000E000BF3B6B002283F8432003E03B6B8A
:10585000002283F83420BB6A372B01D93723BB627F
:105860003B6BBA6ADA623B6BBA6ADA643B6B002262
:105870001A653B6B04331846FEF77CFD3B6B18330F
:105880001846FEF777FD3B6B3A6B1A61BB6AC3F1B2
:1058900038023B6B9A613B6B3A6B5A623B6B00225E
:1058A0005A653B6B002283F858203A68F968B8695A
:1058B000FEF7F4FD02463B6B1A60FB6A002B02D038
:1058C000FB6A3A6B1A6000BF2037BD4680BD0000FE
:1058D00080B582B000AF7860FEF708FF2D4B1B68E3
:1058E00001332C4A13602C4B1B68002B09D12A4A28
:1058F0007B681360274B1B68012B10D100F008FC5C
:105900000DE0264B1B68002B09D1234B1B68DA6A7C
:105910007B68DB6A9A4202D81F4A7B681360204B7F
:105920001B6801331E4A13601D4B1A687B685A645A
:105930007B68DA6A1B4B1B689A4203D97B68DB6A77
:10594000184A13607B68DA6A13469B0013449B0075
:10595000154A1A447B68043319461046FEF717FDB2
:10596000FEF7F2FE0D4B1B68002B0ED00A4B1B6896
:10597000DA6A7B68DB6A9A4207D20C4B4FF080529E
:105980001A60BFF34F8FBFF36F8F00BF0837BD465C
:1059900080BD00BFF889002024850020048A0020F3
:1059A000148A0020008A00202885002004ED00E0F1
:1059B00080B584B000AF78600023FB607B68002B6B
:1059C00016D0134B1B68002B09D04FF0500383F304
:1059D0001188BFF36F8FBFF34F8FBB60FEE700F0FE
:1059E0007FF80021786800F0D7FC00F087F8F860B5
:1059F000FB68002B07D1074B4FF080521A60BFF3B2
:105A00004F8FBFF36F8F00BF1037BD4680BD00BF03
:105A1000208A002004ED00E080B58AB004AF0023A6
:105A2000BB6000237B603A46391D07F10803184626
:105A3000FEF74CFC39687B68BA6802920193002338
:105A4000009300230A4620492048FFF713FE024630
:105A50001F4B1A601E4B1B68002B02D001237B6179
:105A600001E000237B617B69012B02D100F0E8FC9F
:105A700078617B69012B15D14FF0500383F31188B6
:105A8000BFF36F8FBFF34F8F3B61124B4FF0FF326D
:105A90001A60114B01221A60104B00221A60FEF7A7
:105AA00087FD0DE07B69B3F1FF3F09D14FF0500353
:105AB00083F31188BFF36F8FBFF34F8FFB60FEE757
:105AC00000BF1837BD4680BDE4AD0008E1600008A6
:105AD0001C8A0020188A0020048A0020FC890020EB
