:020000040800F2
:1000000000000220098300083D8200084B8200089E
:1000100051820008578200085D820008000000003D
:10002000000000000000000000000000E13D0008AA
:100030006382000800000000214000088940000899
:100040005983000859830008598300085983000820
:100050005983000859830008598300085983000810
:100060005983000859830008598300085983000800
:1000700059830008598300085983000859830008F0
:1000800059830008598300085983000859830008E0
:1000900059830008598300085983000859830008D0
:1000A00059830008718200085983000859830008A9
:1000B00059830008598300085983000859830008B0
:1000C00059830008598300085983000859830008A0
:1000D0005983000859830008F1730008117800085B
:1000E0005983000859830008598300085983000880
:1000F0005983000859830008598300085983000870
:10010000598300085983000859830008598300085F
:10011000598300085983000859830008598300084F
:10012000598300085983000859830008598300083F
:10013000598300085983000859830008598300082F
:10014000598300085983000859830008598300081F
:10015000598300085983000859830008598300080F
:1001600059830008598300085983000859830008FF
:1001700059830008598300085983000800000000D3
:080180005983000859830008AF
:1001900010B5054C237833B9044B13B10448AFF3C1
:1001A00000800123237010BD280200200000000001
:1001B000009F000808B5034B1BB103490348AFF388
:1001C000008008BD000000002C020020009F0008F5
:1001D000034613F8012B002AFBD1181A0138704787
:1001E00010F8012B11F8013B012A28BF9A42F7D0E1
:1001F000D01A70470000000000000000000000005E
:1002000001F0FF01102A2BDB10F0070F08D010F8C7
:10021000013B013A8B422DD010F0070F42B3F6D1CB
:10022000F0B441EA012141EA014122F007047FF0E4
:1002300000070023F0E80256083C85EA010586EA3B
:10024000010685FA47F5A3FA87F586FA47F6A5FA77
:1002500087F68EB9EED1F0BC01F0FF0102F0070283
:1002600032B110F8013B013A83EA010313B1F8D12E
:100270000020704701387047002D06BF354603380F
:10028000073815F0010F07D1013015F4807F02BF48
:10029000013015F4C03F0130F0BC0138704700BF99
:1002A00053B94AB9002908BF00281CBF4FF0FF31DD
:1002B0004FF0FF3000F07AB9ADF1080C6DE904CED3
:1002C00000F006F8DDF804E0DDE9022304B0704731
:1002D0002DE9F0478C460D460446089E002B51D16F
:1002E0008A4217466DD9B2FA82FEBEF1000F0BD0DA
:1002F000CEF1200C01FA0EF520FA0CFC02FA0EF7F2
:100300004CEA050C00FA0EF44FEA174A250CBCFB28
:10031000FAF81FFA87F90AFB18CC45EA0C4508FBE6
:1003200009F3AB420AD9ED1908F1FF3280F02381BD
:10033000AB4240F22081A8F102083D44ED1AA4B27C
:10034000B5FBFAF00AFB105544EA054400FB09F935
:10035000A14509D9E41900F1FF3380F00A81A145D4
:1003600040F2078102383C44A4EB090440EA08400B
:100370000021002E61D024FA0EF400233460736053
:10038000BDE8F0878B4207D9002E54D0002186E8C3
:1003900021000846BDE8F087B3FA83F1002940F058
:1003A0008E80AB4202D3824200F2FA80841A65EB5F
:1003B00003050120AC46002E3FD086E81010BDE8B2
:1003C000F08712B90127B7FBF2F7B7FA87FEBEF143
:1003D000000F34D1EB1B3A0C1FFA87FC0121B3FB51
:1003E000F2F8250C02FB183345EA03450CFB08F331
:1003F000AB4207D9ED1908F1FF3002D2AB4200F24F
:10040000D1808046ED1AA3B2B5FBF2F002FB105585
:1004100043EA05440CFB00FCA44507D9E41900F1AC
:10042000FF3302D2A44500F2B8801846A4EB0C04B6
:1004300040EA08409DE731463046BDE8F087CEF1FE
:10044000200405FA0EF307FA0EF720FA04F83A0C26
:1004500025FA04F448EA0308B4FBF2F14FEA184520
:1004600002FB11441FFA87FC45EA044501FB0CF32B
:10047000AB4200FA0EF409D9ED1901F1FF3080F01A
:100480008A80AB4240F2878002393D44EB1A1FFA62
:1004900088F5B3FBF2F002FB103345EA034500FB9D
:1004A0000CF3AB4207D9ED1900F1FF386FD2AB4224
:1004B0006DD902383D44EB1A40EA01418FE7C1F1A2
:1004C000200722FA07F88B4005FA01F448EA0303F3
:1004D00020FA07FE4FEA134CFD404EEA040EB5FB2E
:1004E000FCF94FEA1E440CFB19551FFA83F844EA45
:1004F000054509FB08F4AC4202FA01F200FA01FAE0
:1005000008D9ED1809F1FF3043D2AC4241D9A9F125
:1005100002091D442D1B1FFA8EFEB5FBFCF00CFBDF
:1005200010554EEA054400FB08F8A04507D9E41829
:1005300000F1FF3529D2A04527D902381C4440EAF2
:100540000940A4EB0804A0FB02894C45C6464D4671
:1005500015D312D056B1BAEB0E0364EB050404FABE
:1005600007F7CB401F43CC40376074600021BDE8E3
:10057000F0871846F8E69046E0E6C245EAD2B8EBC6
:10058000020E69EB03050138E4E72846D7E7404649
:1005900091E78146BEE7014678E702383C4445E7EB
:1005A000084608E7A8F102083D442BE7704700BF62
:1005B00080B584B000AF03463960FB801346BB8032
:1005C0003B681B7A012B04D03B681B7A022B40F05E
:1005D00029814FF40043FB814FF40043BB8100238A
:1005E0007B813B681B7A012B0CD13B681B88013B4C
:1005F0009AB23B685B681946104606F0AFFC0346AA
:100600007B810DE03B681B88013B9AB23B685B68CD
:100610001946104606F0A2FC03469BB2DB437B81E1
:1006200001233B81F2E03A8913465B0013449B00AF
:100630001A463B6813445B7A022B4AD13A89134627
:100640005B0013449B001A463B6813441B7A032B40
:100650000AD03A8913465B0013449B001A463B6854
:1006600013441B7A042B19D13A8913465B001344B7
:100670009B001A463B6813441B88013B98B23A8999
:1006800013465B0013449B001A463B6813445B68A7
:10069000194606F063FC0346BB811AE03A8913460B
:1006A0005B0013449B001A463B6813441B88013BC4
:1006B00098B23A8913465B0013449B001A463B6884
:1006C00013445B68194606F049FC03469BB2DB43C2
:1006D000BB813A8913465B0013449B001A463B6872
:1006E00013445B7A032B36D13A8913465B001344DB
:1006F0009B001A463B6813441B7A032B0AD03A89A5
:1007000013465B0013449B001A463B6813441B7A54
:10071000042B10D13A8913465B0013449B001A4600
:100720003B6813441B88002B02D04FF4004300E0C9
:100730000023BB810FE03A8913465B0013449B0002
:100740001A463B6813441B88002B01D0002301E0AC
:100750004FF40043BB813A8913465B0013449B006E
:100760001A463B6813441B7A033B032B4AD801A269
:1007700052F823F085070008A5070008C507000800
:10078000E5070008BA897B891343BB81BB897B815C
:10079000BB896FEA43436FEA53439AB2FB89134024
:1007A000FB8130E0BA897B891340BB81BB897B81A7
:1007B000BA89FB8913409BB223F4FF4323F07F03E4
:1007C000FB8120E0BA897B891343BB81BB897B8194
:1007D000BB896FEA43436FEA53439AB2FB891340E4
:1007E000FB8110E0BA897B891340BB81BB897B8187
:1007F000BA89FB8913409BB223F4FF4323F07F03A4
:10080000FB8100E000BF3B8901333B813A89BB8813
:100810009A42FFF408AFFB89002B14BF0123002389
:10082000DBB200E0002318461037BD4680BD00BF94
:1008300080B487B000AFF860B9601346FB80BB6836
:100840001B78052B07D0BB681B78062B03D0BB6831
:100850001B78072B01D1002339E0BB68FA685A6086
:10086000BB681B897B6101237B822BE07A8A13465C
:100870009B0013449B001A46BB6813441B78022B51
:100880001DD17A8A13469B0013449B001A46BB680D
:1008900099187A6913465B0013449B001A46FB685B
:1008A00013444B607A8A13469B0013449B001A46FC
:1008B000BB6813441B891A467B6913447B617B8A9E
:1008C00001337B827A8AFB889A42CFD30123184670
:1008D0001C37BD465DF8047B7047000090B58BB0B7
:1008E00000AFB96011461A460346FB810B46BB8137
:1008F0001346FB80BB68002B01D100232AE1BB8992
:10090000013B7B6221E17A6A13469B0013449B0002
:100910001A46BB6813441B78023B052B00F2128178
:1009200001A252F823F000BF510A00084109000853
:1009300071090008110A0008A1090008D909000876
:100940007A6A13469B0013449B001A46BB689C18A6
:100950007A6A13469B0013449B001A46BB681344F3
:100960005B68184601F01EF903469BB22382E9E05A
:100970007A6A13469B0013449B001A46BB689C1876
:100980007A6A13469B0013449B001A46BB681344C3
:100990001B89184601F044F903469BB22382D1E03B
:1009A0007A6A13469B0013449B001A46BB681344A3
:1009B0001B89C83BFB837A6A13469B0013449B0048
:1009C0001A46BB689C18FB8BDBB2184605F08EFFFD
:1009D00003469BB22382B5E07A6A13469B00134418
:1009E0009B001A46BB6813441B89A3F51673BB838F
:1009F0007A6A13469B0013449B001A46BB689C18F6
:100A0000BB8B184601F0AAF803469BB2238299E0FB
:100A10007A6A13469B0013449B001A46BB68134432
:100A20001B89A3F548737B837A6A13469B001344A2
:100A30009B001A46BB6813447A8B012101FA02F22B
:100A400011B2B7F906200A4012B292B21A8279E0C6
:100A500001237B8448E07A6A13469B0013449B0081
:100A60001A46BB6813445B687B617A8C13465B0053
:100A700013449B001A467B6913445B7A032B30D1E5
:100A800001233B8429E07A8C13465B0013449B00CE
:100A90001A467B691344997A3A8C13469B00134497
:100AA0009B001A46BB681344DB7B994212D17A8CB7
:100AB00013465B0013449B001A467B6999183A8CD5
:100AC00013469B0013449B001A46BB6813441B8AC1
:100AD0000B8006E03B8C01333B843A8CBB899A4205
:100AE000D1D37B8C01337B847A6A13469B001344F9
:100AF0009B001A46BB6813441B897A8C9A42AAD37E
:100B00007A6A13469B0013449B001A46BB689C18E4
:100B10007A6A13469B0013449B001A46BB68134431
:100B200059687A6A13469B0013449B001A46BB68B7
:100B300013441A89FB891846FFF73AFD03469BB216
:100B4000238200BF7B6A013B7B627B6A002BBFF67E
:100B5000DAAE012318462C37BD4690BD80B487B06D
:100B600000AFF860B9607A60FB685A687B689A42A7
:100B700001D3002314E0FB685B68591CFA685160DC
:100B80001B01BA6813447B617B694FF0FF329A60A6
:100B90007B699A687B695A607B690022DA607B69AD
:100BA00018461C37BD465DF8047B704780B485B09D
:100BB00000AFF8607A603B600B46FB72FB68FA7A24
:100BC0001A70FB687A685A60FB683A689A60FB683A
:100BD0000022DA6000BF1437BD465DF8047B704721
:100BE00080B586B000AFF860B9607A603B60FB68A2
:100BF0001B687B6134E0FB681B68BA6813441B7890
:100C0000202B3AD0202B06DC092B0FDB0A2B34DDFE
:100C10000D2B32D00AE03A2B2FD03A2B02DC2C2BB2
:100C20002BD003E05D2B28D07D2B26D000BFFB68A6
:100C30001B68BA6813441B781F2B06D9FB681B6816
:100C4000BA6813441B787E2B05D97A69FB681A6051
:100C50006FF0010338E0FB681B685A1CFB681A60E0
:100C6000FB681A687B689A4208D2FB681B68BA68FE
:100C700013441B78002BBED100E000BF3B68002B63
:100C800006D1FB681B685A1EFB681A6000231BE034
:100C90003A6A3968F868FFF761FF38613B69002BF1
:100CA00005D17A69FB681A604FF0FF330CE0FB68EE
:100CB0001B687A6904213869FFF778FFFB681B68B5
:100CC0005A1EFB681A60002318461837BD4680BDBF
:100CD00080B588B000AFF860B9607A603B60FB68AF
:100CE0001B68BB61FB681B685A1CFB681A604CE1FF
:100CF000FB681B68BA6813441B78FB75FB7D222BCD
:100D00001DD13B68002B01D1002350E1BA6A39683C
:100D1000F868FFF723FF38613B69002B05D1BA69FA
:100D2000FB681A604FF0FF3341E1BB695A1CFB6856
:100D30001B6803213869FFF739FF002337E1FB7D8A
:100D40005C2B40F01D81FB681B685A1C7B689A4233
:100D500080F01681FB681B685A1CFB681A60FB68F0
:100D60001B68BA6813441B78223B532B00F20181A5
:100D700001A252F823F000BF7F0F0008730F000894
:100D8000730F0008730F0008730F0008730F00083B
:100D9000730F0008730F0008730F0008730F00082B
:100DA000730F0008730F0008730F00087F0F00080F
:100DB000730F0008730F0008730F0008730F00080B
:100DC000730F0008730F0008730F0008730F0008FB
:100DD000730F0008730F0008730F0008730F0008EB
:100DE000730F0008730F0008730F0008730F0008DB
:100DF000730F0008730F0008730F0008730F0008CB
:100E0000730F0008730F0008730F0008730F0008BA
:100E1000730F0008730F0008730F0008730F0008AA
:100E2000730F0008730F0008730F0008730F00089A
:100E3000730F0008730F0008730F0008730F00088A
:100E4000730F0008730F0008730F0008730F00087A
:100E5000730F0008730F0008730F0008730F00086A
:100E60007F0F0008730F0008730F0008730F00084E
:100E7000730F0008730F00087F0F0008730F00083E
:100E8000730F0008730F00087F0F0008730F00082E
:100E9000730F0008730F0008730F0008730F00082A
:100EA000730F0008730F00087F0F0008730F00080E
:100EB000730F0008730F00087F0F0008730F0008FE
:100EC0007F0F0008C90E0008FB681B685A1CFB68EE
:100ED0001A600023FB6137E0FB681B68BA681344A3
:100EE0001B782F2B06D9FB681B68BA6813441B7844
:100EF000392B21D9FB681B68BA6813441B78402B37
:100F000006D9FB681B68BA6813441B78462B13D9B3
:100F1000FB681B68BA6813441B78602B06D9FB6812
:100F20001B68BA6813441B78662B05D9BA69FB683D
:100F30001A606FF001033AE0FB681B685A1CFB68FB
:100F40001A60FB690133FB61FB69032B0BDCFB6857
:100F50001A687B689A4206D2FB681B68BA68134419
:100F60001B78002BB8D1FB681B685A1EFB681A60FF
:100F700006E0BA69FB681A606FF0010317E000BF72
:100F8000FB681B685A1CFB681A60FB681A687B6860
:100F90009A4207D2FB681B68BA6813441B78002B7F
:100FA0007FF4A6AEBA69FB681A606FF002031846B8
:100FB0002037BD4680BD00BF80B58CB002AFF86061
:100FC000B9607A603B60FB685B683B625FE1FB682D
:100FD0001B68BA6813441B78FB77FB7F2C2B00F04F
:100FE000DD802C2B10DC0D2B00F041810D2B04DC5F
:100FF000093B012B00F2198139E1202B00F03781E8
:10100000222B00F0A18010E15D2B43D05D2B05DC8D
:101010003A2B00F0BC805B2B05D006E17B2B02D085
:101020007D2B37D001E13B6A01333B623B68002BEB
:1010300000F01F813A6B3968F868FFF78FFDB861DF
:10104000BB69002B02D14FF0FF334FE1FB689B6877
:10105000B3F1FF3F0AD0FB689B681B013A68134459
:101060003B613B69DB685A1C3B69DA60FB7F7B2B89
:1010700001D1012200E00222BB691A70FB681B68E3
:101080001A46BB695A60FB685B68013B1A46FB68FD
:101090009A60F7E03B68002B00F0ED80FB7F7D2B32
:1010A00001D1012300E00223BB77FB685B68013BB1
:1010B0007B6224E07B6A1B013A681344BB61BB6915
:1010C0005B68B3F1FF3F17D0BB699B68B3F1FF3F8B
:1010D00012D1BB691B78BA7F9A4202D06FF001032C
:1010E00004E1FB684FF0FF329A60FB681B68013334
:1010F0001A46BB699A6005E07B6A013B7B627B6AAA
:10110000002BD7DA7B6AB3F1FF3F19D16FF00103EF
:10111000ECE07B6A1B013A681344BB61BB695B6806
:10112000B3F1FF3F09D0BB699B68B3F1FF3F04D126
:10113000FB687A6A9A6000BFA4E07B6A013B7B622D
:101140007B6A002BE5DA9DE03B6B00933B687A6895
:10115000B968F868FFF7BCFD78617B69002B01DA9C
:101160007B69C3E03B6A01333B62FB689B68B3F178
:10117000FF3F00F082803B68002B7ED0FB689B68BD
:101180001B013A681344DA680132DA6075E0FB68E3
:101190005B68013B1A46FB689A6073E03B68002B72
:1011A0006DD0FB689B68B3F1FF3F68D0FB689B681C
:1011B0001B013A6813441B78022B60D0FB689B68C4
:1011C0001B013A6813441B78012B58D0FB685B68FD
:1011D000013B7B6225E07B6A1B013A6813441B7864
:1011E000022B06D07B6A1B013A6813441B78012B43
:1011F00014D17B6A1B013A6813445B68B3F1FF3F6B
:101200000CD07B6A1B013A6813449B68B3F1FF3F23
:1012100004D1FB687A6A9A6000BF30E07B6A013BC8
:101220007B627B6A002BD6DA29E03B6B00933B683C
:101230007A68B968F868FFF7D3FC78617B69002B9E
:1012400001DA7B6952E03B6A01333B62FB689B68D1
:10125000B3F1FF3F15D03B68002B12D0FB689B68B1
:101260001B013A681344DA680132DA6009E000BF12
:1012700008E000BF06E000BF04E000BF02E000BFDE
:1012800000E000BFFB681B685A1CFB681A60FB6823
:101290001A687B689A4207D2FB681B68BA681344D5
:1012A0001B78002B7FF493AE3B68002B1DD0FB68AE
:1012B0005B68013B7B6215E07B6A1B013A68134463
:1012C0005B68B3F1FF3F0AD07B6A1B013A681344A5
:1012D0009B68B3F1FF3F02D16FF0020306E07B6A27
:1012E000013B7B627B6A002BE6DA3B6A18462837B3
:1012F000BD4680BD80B483B000AF78607B680022BB
:101300001A607B6800225A607B684FF0FF329A6057
:1013100000BF0C37BD465DF8047B704780B584B0D4
:1013200000AFF860B9607A60BB681B78032B1ED1F0
:101330007868FEF74DFF03461946BB689A68BB689C
:101340005B68D31A994212D1BB685B681A46FB6886
:101350009818BB689A68BB685B68D31A1A467968A4
:1013600007F075F90346002B01D1002301E04FF08F
:10137000FF3318461037BD4680BD000090B5ADF66E
:10138000640D02AF07F10C04206007F10800016052
:10139000391D0A603A4613600023C7F85438002309
:1013A000C7F850380023C7F84C3807F6180318461A
:1013B000FFF7A0FF07F10C031868FEF709FF0446CA
:1013C00007F1180207F10C0107F6180080230093BB
:1013D000134622460968FFF7EFFDC7F83408D7F82F
:1013E0003438002B04DD07F118031B78012B01D0E2
:1013F0000023ADE30123C7F84838A0E307F1180242
:10140000D7F848381B01D11807F10C03B24A186805
:10141000FFF784FF0346002B05D1D7F84838013386
:10142000C7F8483886E307F11802D7F848381B0197
:10143000D11807F10C03A94A1868FFF76FFF03469C
:10144000002B40F05482D7F84838013307F11802D6
:101450001B0113441B78022B40F069830023C7F85B
:10146000443822E2D7F84828D7F8443813440233E6
:1014700007F118021B011344C7F83038D7F8303889
:101480005B68013307F10C0212681344C7F82C386B
:1014900007F1140300221A60D7F8442813469B0072
:1014A00013449B001A463B1D1B6813440A33032256
:1014B000D7F82C18184607F06EF8D7F844281346CA
:1014C0009B0013449B001A463B1D1B6813440022DB
:1014D0005A73D7F8442813469B0013449B001A46BE
:1014E0003B1D1B681344D7F84428D2B2DA73D7F8EF
:1014F000442813469B0013449B001A463B1D1B685F
:1015000013449B7A692B2FD1D7F8442813469B00AC
:1015100013449B001A463B1D1B68134406221A7095
:10152000D7F8442813469B0013449B001A463B1DE2
:101530001B68134400225A60D7F8442813469B00C6
:1015400013449B001A463B1D1B689C18D7F82C3887
:1015500004330A220021184607F038F903469BB2EB
:10156000C8339BB223819BE1D7F8442813469B00E4
:1015700013449B001A463B1D1B6813449B7A672B40
:1015800030D1D7F8442813469B0013449B001A46D9
:101590003B1D1B68134407221A70D7F844281346D2
:1015A0009B0013449B001A463B1D1B6813440022FA
:1015B0005A60D7F8442813469B0013449B001A46F0
:1015C0003B1D1B689C18D7F82C3804330A220021D5
:1015D000184607F0FBF803469BB203F516739BB25F
:1015E00023815DE1D7F8442813469B0013449B00F8
:1015F0001A463B1D1B6813449B7A702B30D1D7F8D9
:10160000442813469B0013449B001A463B1D1B684D
:10161000134405221A70D7F8442813469B0013443C
:101620009B001A463B1D1B68134400225A60D7F8E2
:10163000442813469B0013449B001A463B1D1B681D
:101640009C18D7F82C3804330A220021184607F0DA
:10165000BDF803469BB203F548739BB223811FE19B
:10166000D7F8442813469B0013449B001A463B1DA1
:101670001B6813449B7A772B32D1D7F84428134642
:101680009B0013449B001A463B1D1B681344042215
:101690001A70D7F8442813469B0013449B001A463F
:1016A0003B1D1B68134400225A60D7F84428134698
:1016B0009B0013449B001A463B1D1B689C18D7F8DF
:1016C0002C38043310220021184607F07FF8034617
:1016D0009BB22381E4E000BF189F00081C9F000814
:1016E000D7F8442813469B0013449B001A463B1D21
:1016F0001B6813449B7A742B40F08980D7F84428E8
:1017000013469B0013449B001A463B1D1B68134461
:1017100003221A70D7F850281346DB001344DB006D
:101720001A463B461B689C18D7F82C38043307F13F
:1017300014010A22184607F049F80346A360D7F8B7
:1017400050281346DB001344DB001A463B461B6857
:101750009C1807F114031B68013307F114010A22D6
:10176000184607F033F803466360D7F8502813464D
:10177000DB001344DB001A463B461B689C1807F14C
:1017800014031B68013307F114010A22184607F0FD
:101790001DF80346E362D7F850281346DB001344D4
:1017A000DB001A463B461B689C1807F114031B68B4
:1017B00001330A220021184607F008F80346A36205
:1017C000D7F8442813469B0013449B001A463B1D40
:1017D0001B689918D7F850281346DB001344DB0028
:1017E0001A463B461B6813444B60D7F844281346FF
:1017F0009B0013449B001A463B1D1B6813440022A8
:101800001A81D7F850380133C7F8503848E0D7F874
:10181000442813469B0013449B001A463B1D1B683B
:1018200013449B7A732B0CD0D7F8442813469B00A3
:1018300013449B001A463B1D1B6813449B7A6F2B75
:101840002ED1D7F8442813469B0013449B001A4618
:101850003B1D1B68134402221A70D7F84428134614
:101860009B0013449B001A463B1D1B681344002237
:101870005A60D7F8442813469B0013449B001A462D
:101880003B1D1B689C18D7F82C38043307F1140152
:101890000A22184606F09AFF03469BB2238100BF36
:1018A000D7F844380133C7F84438D7F848380133FB
:1018B00007F118021B0113440C331A68D7F8443897
:1018C0009A423FF7CFADD7F84438C7F84C38D7F82D
:1018D0004838013307F118021B0113440C331B680D
:1018E0000133D7F848281344C7F8483822E1D7F81D
:1018F0004838013307F118021B0113441B78022BEF
:1019000040F017810023C7F84038F2E0D7F84828A4
:10191000D7F840381344023307F118021B0113446F
:10192000C7F82838D7F828385B68013307F10C026C
:1019300012681344C7F8243807F1100300221A6014
:101940000023C7F83C380023C7F8383826E0D7F81A
:10195000382813469B0013449B001A463B1D1B6806
:1019600013440A3303221946D7F8240806F004FE6C
:101970000346002B0DD1D7F8382813469B0013449B
:101980009B001A463B1D1B681344DB7BC7F83C38A1
:101990000AE0D7F838380133C7F83838D7F838288C
:1019A000D7F84C389A42D2DBD7F83C38002B44DDCC
:1019B000D7F8542813465B0013449B001A4607F1DE
:1019C00008031B68134400221A80D7F854281346D2
:1019D0005B0013449B001A4607F108031B689C1820
:1019E000D7F8243805330A220021184606F0EEFE07
:1019F0000346DBB22372D7F8542813465B00134426
:101A00009B001A4607F108031B681344D7F83C28CB
:101A1000D2B29A72D7F8542813465B0013449B0045
:101A20001A4607F108031B68134403225A72D7F8B9
:101A300054380133C7F8543856E0D7F854281346C1
:101A40005B0013449B001A4607F108031B689C18AF
:101A500007F1100310221946D7F8240806F0B6FE45
:101A600003469BB22380D7F8542813465B001344E7
:101A70009B001A4607F108031B689C1807F1100326
:101A80001B68013307F110010A22184606F09EFE7A
:101A90000346DBB22372D7F8542813465B00134485
:101AA0009B001A4607F108031B689C1807F11003F6
:101AB0001B68013307F110010A22184606F086FE62
:101AC00003466360D7F8542813465B0013449B0019
:101AD0001A4607F108031B68134402225A72D7F80A
:101AE00054380133C7F85438D7F840380133C7F8B1
:101AF0004038D7F84838013307F118021B01134466
:101B00000C331A68D7F840389A423FF7FFAED7F83F
:101B10004838013307F118021B0113440C331B68CA
:101B20000133D7F848281344C7F8483802E000BF0B
:101B300000E000BFD7F848380133C7F84838D7F875
:101B40004828D7F834389A42FFF658ACD7F84C38C2
:101B5000184607F65C07BD4690BD00BF80B485B04F
:101B600000AF0346FB800023FB810FE0FB890C4A9A
:101B700032F82330FA889A4205D1FB89084A9B0043
:101B800013449B7806E0FB890133FB81FB89FF2B23
:101B9000ECD9002318461437BD465DF8047B704726
:101BA0004402002080B58CB000AF786007F10C03D0
:101BB00024220021184606F0F9FC07F10C03184610
:101BC00006F0C8F97A697B689B689A420BD13A693A
:101BD0007B685B689A4206DB7A697B68DB6A9A42BB
:101BE00001DA012318E07A697B689B689A4206DD76
:101BF0007A697B68DB6A9A4201DA01230CE07A6930
:101C00007B68DB6A9A4206D13A697B689B6A9A4292
:101C100001DC012300E0002318463037BD4680BDBB
:101C200080B58CB000AF0346FB8007F10C03242283
:101C30000021184606F0BAFC07F10C03184606F01E
:101C400089F9FA887B6A42FA03F303F00103002B57
:101C500001D0012300E0002318463037BD4680BD87
:101C600080B582B000AF7860084800F09BF9074863
:101C700005F0F4FA0221064805F080FB054A7B686E
:101C8000136000BF0837BD4680BD00BF248D002013
:101C9000249F00084406002080B500AF4FF4806206
:101CA0000021024806F082FC00BF80BD289D002074
:101CB00090B585B000AF78600B467B80104800F08F
:101CC000BAF902467B881344FB607B68002B12D074
:101CD000F868FEF77DFA04467868FEF779FA03465D
:101CE0009C4208D37968F86806F0C3FC0346002BD1
:101CF00001D0012300E0002318461437BD4690BDF3
:101D0000248D002080B582B000AF78600B467B80C8
:101D100012E000217868FFF7CBFF0346002B04D0C8
:101D20000B4800F06EF901230DE00A4B1B680120FF
:101D300098477B88013B7B807B88002BE9D1044856
:101D400000F05FF9002318460837BD4680BD00BF8C
:101D5000248D00204406002080B500AF024800F02A
:101D60006AF90346184680BD248D002080B582B0F4
:101D700000AF0346FB71FFF78FFFFB791A46154949
:101D8000154806F01BFC154800F03BF91248FEF719
:101D90001FFA03461946104805F0F0FA4FF4FA61AD
:101DA0000F48FFF7AFFF0346002B0ED008210D4868
:101DB00005F0E4FA4FF4FA610B48FFF7A3FF03467E
:101DC000002B01D0012301E000BF00231846083793
:101DD000BD4680BD389F0008289D0020248D00202E
:101DE000489F00084C9F0008589F000898B500AF16
:101DF000FFF752FF104A114B144607CB2060616079
:101E0000A2601B88A3810C48FEF7E2F9034619463D
:101E1000094805F0B3FA0A4800F0F3F84FF4FA71F4
:101E20000848FFF76FFF0346002B01D0012300E0B5
:101E30000023184698BD00BF289D0020609F000821
:101E4000248D0020489F000880B582B000AF7860E4
:101E500039607B68002B1FD03B68002B1CD0FFF73C
:101E60001BFF3B687A680F490F4806F0A7FB0F4835
:101E700000F0C7F80C48FEF7ABF9034619460A48CC
:101E800005F07CFA42F210710948FFF73BFF034668
:101E9000002B01D0012300E0002318460837BD467F
:101EA00080BD00BF709F0008289D0020248D002069
:101EB000489F000880B586B000AFF8607A603B604C
:101EC0000B467B81FFF7E8FE7B89FA682D492E4897
:101ED00006F074FB2D4800F094F82B48FEF778F9D3
:101EE00003461946284805F049FA294B1B684FF468
:101EF0007A7098474FF47A712648FFF703FF03463C
:101F0000002B39D0FFF7C8FE3A6823491E4806F077
:101F100055FB1E4800F075F81B48FEF759F90346BB
:101F20001946194805F02AFA194B1B680A209847E8
:101F30004FF47A711948FFF7E5FE0346002B1BD0DA
:101F40007B68002B18D000237B6109E07B697A68ED
:101F500013441B78184605F0F9F97B6901337B615E
:101F60007A693B689A42F1D397F82030002B03D06E
:101F700002210B4805F002FA002318461837BD4627
:101F800080BD00BFA89F0008289D0020248D002050
:101F900044060020489F0008C49F0008D89F0008FE
:101FA000249F000880B483B000AF78607B68002273
:101FB0005A807B685A887B681A8000BF0C37BD4600
:101FC0005DF8047B704780B483B000AF78600B4647
:101FD000FB707B681B885A1C91B27A6811801A4684
:101FE0007B681344FA781A717B681B88C3F30B0370
:101FF0009AB27B681A8000BF0C37BD465DF8047B3F
:10200000704780B582B000AF78607B6804334FF4CE
:1020100080520021184606F0C9FA7B6800221A7126
:102020007B6800221A807B681A887B685A8000BF10
:102030000837BD4680BD80B483B000AF78607B6850
:10204000043318460C37BD465DF8047B704700002A
:1020500080B500AF0E4A0E4B1B6843F4007313604B
:102060000B4A0B4B1B6843F480631360084A084B10
:102070001B6843F480731360032000F0CAF800204B
:1020800006F082F806F054F80023184680BD00BF21
:10209000003C024080B400AF064B1B781A46064B4A
:1020A0001B681344044A136000BFBD465DF8047BFF
:1020B000704700BF0000002028A1002080B485B038
:1020C00000AF78607B6803F00703FB600C4BDB68B4
:1020D000BB60BA684FF6FF031340BB60FB681A028F
:1020E000BB68134343F0BF6343F40033BB60044A4F
:1020F000BB68D36000BF1437BD465DF8047B7047F2
:1021000000ED00E080B400AF044BDB681B0A03F075
:1021100007031846BD465DF8047B704700ED00E0FC
:1021200080B483B000AF0346FB7197F90730002BF2
:102130000BDB094997F907305B09FA7902F01F02B6
:10214000012000FA02F241F8232000BF0C37BD46FF
:102150005DF8047B704700BF00E100E080B483B00D
:1021600000AF03463960FB7197F90730002B0ADB9B
:102170000D4997F907303A68D2B21201D2B20B4436
:1021800083F800230AE00949FB7903F00F03043BBD
:102190003A68D2B21201D2B20B441A7600BF0C37A1
:1021A000BD465DF8047B704700E100E000ED00E013
:1021B00080B489B000AFF860B9607A60FB6803F062
:1021C0000703FB61FB69C3F10703042B28BF04234A
:1021D000BB61FB690433062B02D9FB69033B00E0BA
:1021E00000237B610122BB6902FA03F35A1EBB681C
:1021F0001A407B699A4001217B6901FA03F3591E59
:102200007B680B40134318462437BD465DF8047BBA
:10221000704780B582B000AF78607868FFF74EFFF6
:1022200000BF0837BD4680BD80B586B000AF03460D
:10223000B9607A60FB7300237B61FFF763FF78610D
:102240007A68B9687869FFF7B3FF024697F90F30EB
:1022500011461846FFF782FF00BF1837BD4680BD04
:1022600080B582B000AF0346FB7197F9073018467E
:10227000FFF756FF00BF0837BD4680BD80B400AFF2
:10228000034B1B681846BD465DF8047B704700BFD2
:102290000C00002080B500AFFFF7F0FF0146054BB2
:1022A0009B685B0B03F00703034AD35C21FA03F33B
:1022B000184680BD00380240D0A1000880B483B029
:1022C00000AF786039607B680F221A60124B9B6800
:1022D00003F003027B685A600F4B9B6803F0F00227
:1022E0007B689A600C4B9B6803F4E0527B68DA6071
:1022F000094B9B68DB0803F4E0527B681A61074BCB
:102300001B6803F00F023B681A6000BF0C37BD4624
:102310005DF8047B704700BF00380240003C02407B
:1023200080B582B000AF78607B68002B01D10123BB
:102330001DE07B6893F83D30DBB2002B06D17B6853
:10234000002283F83C20786800F015F87B680222B0
:1023500083F83D207B681A687B6804331946104671
:1023600000F068F97B68012283F83D2000231846BD
:102370000837BD4680BD80B483B000AF786000BF31
:102380000C37BD465DF8047B704780B485B000AF64
:1023900078607B681B687A681268D26842F0010234
:1023A000DA607B681B689B6803F00703FB60FB68CF
:1023B000062B07D07B681B687A681268126842F0A7
:1023C00001021A60002318461437BD465DF8047BED
:1023D000704780B582B000AF78607B681B681B696E
:1023E00003F00203022B22D17B681B68DB6803F039
:1023F0000203022B1BD17B681B686FF002021A617B
:102400007B6801221A777B681B689B6903F00303D2
:10241000002B03D0786800F0EEF805E0786800F053
:10242000E0F8786800F0F1F87B6800221A777B68A2
:102430001B681B6903F00403042B22D17B681B6813
:10244000DB6803F00403042B1BD17B681B686FF06F
:1024500004021A617B6802221A777B681B689B69F9
:1024600003F44073002B03D0786800F0C4F805E053
:10247000786800F0B6F8786800F0C7F87B6800224A
:102480001A777B681B681B6903F00803082B22D1AD
:102490007B681B68DB6803F00803082B1BD17B6893
:1024A0001B686FF008021A617B6804221A777B6848
:1024B0001B68DB6903F00303002B03D0786800F08E
:1024C0009AF805E0786800F08CF8786800F09DF8DC
:1024D0007B6800221A777B681B681B6903F0100376
:1024E000102B22D17B681B68DB6803F01003102BD4
:1024F0001BD17B681B686FF010021A617B68082291
:102500001A777B681B68DB6903F44073002B03D0E8
:10251000786800F070F805E0786800F062F8786894
:1025200000F073F87B6800221A777B681B681B69D0
:1025300003F00103012B0ED17B681B68DB6803F0FD
:102540000103012B07D17B681B686FF001021A6140
:10255000786805F0DBFB7B681B681B6903F0800370
:10256000802B0ED17B681B68DB6803F08003802B17
:1025700007D17B681B686FF080021A61786800F0F1
:1025800003F97B681B681B6903F04003402B0ED1E5
:102590007B681B68DB6803F04003402B07D17B6836
:1025A0001B686FF040021A61786800F038F87B68A9
:1025B0001B681B6903F02003202B0ED17B681B686E
:1025C000DB6803F02003202B07D17B681B686FF0CA
:1025D00020021A61786800F0CDF800BF0837BD46C8
:1025E00080BD80B483B000AF786000BF0C37BD46BB
:1025F0005DF8047B704780B483B000AF786000BFA3
:102600000C37BD465DF8047B704780B483B000AFE3
:10261000786000BF0C37BD465DF8047B704780B41E
:1026200083B000AF786000BF0C37BD465DF8047B17
:102630007047000080B485B000AF786039607B6877
:102640001B68FB607B68404A934213D07B68B3F100
:10265000804F0FD07B683D4A93420BD07B683C4A49
:10266000934207D07B683B4A934203D07B683A4A47
:10267000934208D1FB6823F07003FB603B685B6802
:10268000FA681343FB607B682F4A93422BD07B6828
:10269000B3F1804F27D07B682C4A934223D07B68CC
:1026A0002B4A93421FD07B682A4A93421BD07B68F7
:1026B000294A934217D07B68284A934213D07B68FB
:1026C000274A93420FD07B68264A93420BD07B68FF
:1026D000254A934207D07B68244A934203D07B6803
:1026E000234A934208D1FB6823F44073FB603B68A4
:1026F000DB68FA681343FB60FB6823F080023B68E9
:102700005B691343FB607B68FA681A603B689A68F0
:102710007B68DA623B681A687B689A627B680A4A5F
:10272000934203D07B680C4A934203D13B681A69F9
:102730007B681A637B6801225A6100BF1437BD466B
:102740005DF8047B704700BF0000014000040040BA
:1027500000080040000C004000040140004001401F
:10276000004401400048014000180040001C0040A7
:102770000020004080B483B000AF786000BF0C3709
:10278000BD465DF8047B704780B483B000AF7860CD
:1027900000BF0C37BD465DF8047B704780B489B03C
:1027A00000AFF860B9607A60FB681A68BB687B614B
:1027B0007B6993FAA3F33B613B69B3FA83F3DBB222
:1027C0005B00032101FA03F3DB431A40BB68FB61A2
:1027D000FB6993FAA3F3BB61BB69B3FA83F3DBB282
:1027E0005B00796801FA03F31A43FB681A6000BFC3
:1027F0002437BD465DF8047B704780B485B000AFD8
:10280000F860B9607A60FB685A68BB68DB431A40BD
:10281000BB68796801FB03F31A43FB685A6000BF89
:102820001437BD465DF8047B704780B489B000AFB3
:10283000F860B9607A60FB689A68BB687B617B6905
:1028400093FAA3F33B613B69B3FA83F3DBB25B001A
:10285000032101FA03F3DB431A40BB68FB61FB6908
:1028600093FAA3F3BB61BB69B3FA83F3DBB25B00FA
:10287000796801FA03F31A43FB689A6000BF2437B2
:10288000BD465DF8047B704780B489B000AFF86046
:10289000B9607A60FB68DA68BB687B617B6993FA30
:1028A000A3F33B613B69B3FA83F3DBB25B00032123
:1028B00001FA03F3DB431A40BB68FB61FB6993FA3F
:1028C000A3F3BB61BB69B3FA83F3DBB25B00796846
:1028D00001FA03F31A43FB68DA6000BF2437BD46F0
:1028E0005DF8047B704780B489B000AFF860B960D0
:1028F0007A60FB681A6ABB687B617B6993FAA3F311
:102900003B613B69B3FA83F3DBB29B000F2101FA11
:1029100003F3DB431A40BB68FB61FB6993FAA3F343
:10292000BB61BB69B3FA83F3DBB29B00796801FA40
:1029300003F31A43FB681A6200BF2437BD465DF8F3
:10294000047B704780B489B000AFF860B9607A60EA
:10295000FB685A6ABB681B0A7B617B6993FAA3F325
:102960003B613B69B3FA83F3DBB29B000F2101FAB1
:1029700003F3DB431A40BB681B0AFB61FB6993FA54
:10298000A3F3BB61BB69B3FA83F3DBB29B00796845
:1029900001FA03F31A43FB685A6200BF2437BD46AD
:1029A0005DF8047B704780B588B000AF786039600F
:1029B0000023FB610023BB613B681B687B617B6973
:1029C00093FAA3F33B613B69B3FA83F3DBB2FB6198
:1029D00050E03B681A680121FB6901FA03F31340D8
:1029E000BB61BB69002B42D03B685B68012B03D005
:1029F0003B685B68022B0DD13B689B681A46B9693E
:102A00007868FFF712FF3B68DB681A46B969786897
:102A1000FFF7F3FE3B681B691A46B9697868FFF750
:102A200033FF3B685B68022B1AD1BB69FB60FB6814
:102A300093FAA3F3BB60BB68B3FA83F3DBB2072B53
:102A400007D83B685B691A46B9697868FFF74BFF9E
:102A500006E03B685B691A46B9697868FFF772FF60
:102A60003B685B681A46B9697868FFF797FEFB69AF
:102A70000133FB613B681A68FB6922FA03F3002B00
:102A8000A7D1002318462037BD4680BD80B400AFD3
:102A9000044B9B6803F00C031846BD465DF8047BAD
:102AA000704700BF0038024080B400AF044B9B6801
:102AB00003F0F0031846BD465DF8047B704700BF85
:102AC0000038024080B400AF044B9B6803F4E0532D
:102AD0001846BD465DF8047B704700BF00380240D1
:102AE00080B400AF044B9B6803F460431846BD46B6
:102AF0005DF8047B704700BF0038024080B400AF2F
:102B0000044B5B6803F480031846BD465DF8047B04
:102B1000704700BF0038024080B400AF044B5B68D0
:102B20009B09C3F308031846BD465DF8047B704754
:102B30000038024080B400AF044B5B6803F44033BC
:102B40001846BD465DF8047B704700BF0038024060
:102B500080B400AF044B5B6803F03F031846BD46EA
:102B60005DF8047B704700BF0038024080B582B03A
:102B700000AF786000F020F802467B681A607B683E
:102B80001B68184600F03EF802467B685A607B6876
:102B90005B68184600F04CF802467B689A607B68D8
:102BA0005B68184600F058F802467B68DA6000BFA0
:102BB0000837BD4680BD000080B582B000AF00235D
:102BC0007B60FFF763FF0346042B06D0082B07D07A
:102BD000002B0AD1094B7B600AE0094B7B6007E0C0
:102BE000082000F04DF8786002E0044B7B6000BFE5
:102BF0007B6818460837BD4680BD00BF0024F4003E
:102C000000127A0080B582B000AF7860FFF74CFF09
:102C100003461B0903F00F03044AD35C1A467B6882
:102C2000D34018460837BD4680BD00BFC0A100088C
:102C300080B582B000AF7860FFF744FF03469B0A7F
:102C4000044AD35C1A467B68D34018460837BD4611
:102C500080BD00BFD0A1000880B582B000AF786011
:102C6000FFF73EFF03465B0B044AD35C1A467B68C2
:102C7000D34018460837BD4680BD00BFD0A100082C
:102C800090B587B000AF786000237B610023FB60C4
:102C900000233B61FFF732FFF860FB68002B03D095
:102CA000B3F5800F03D005E0124B7B6105E0124BBA
:102CB0007B6102E00F4B7B6100BF7B68082B13D167
:102CC000FFF746FF02467B69B3FBF2F4FFF724FFF0
:102CD000034603FB04F4FFF72DFF03461B0C0133EF
:102CE0005B00B4FBF3F33B613B6918461C37BD4600
:102CF00090BD00BF0024F40000127A0080B483B0BD
:102D000000AF786039607B689B6823F040023B68C5
:102D10001A437B689A6000BF0C37BD465DF8047BA0
:102D2000704780B483B000AF78607B689B6803F025
:102D3000400318460C37BD465DF8047B704780B4ED
:102D400083B000AF78607B684FF0FF32DA6000BF7D
:102D50000C37BD465DF8047B704780B483B000AF8C
:102D600078607B686FF08002DA6000BF0C37BD4688
:102D70005DF8047B704780B483B000AF78607B68F7
:102D80009B6803F02003202B0CBF01230023DBB240
:102D900018460C37BD465DF8047B704780B483B09D
:102DA00000AF786039607B681B6923F4FE023B68E2
:102DB0001B041A437B681A6100BF0C37BD465DF8DF
:102DC000047B704780B483B000AF786039607B6863
:102DD0001B6923F4FF4323F07F033A681A437B689F
:102DE0001A6100BF0C37BD465DF8047B704780B4A4
:102DF00083B000AF78607B68FF225A6200BF0C3757
:102E0000BD465DF8047B704780B483B000AF786046
:102E10007B68CA225A627B6853225A6200BF0C3711
:102E2000BD465DF8047B704790B484B000AFF86095
:102E3000B9607A603B607B681B0403F47F02BB6867
:102E40001A433B681B029BB21A43BB69DBB242EADE
:102E50000304FB681B6823F07F1323F4FE4343EA5B
:102E60000402FB681A6000BF1037BD4690BC704773
:102E700090B484B000AFF860B9607A603B60002421
:102E8000BB685A03BB691B0403F47F031A433B6806
:102E90001B029BB21A437B68DBB242EA0304FB6865
:102EA0005A68054B134043EA0402FB685A6000BFAE
:102EB0001037BD4690BC7047C00000FF80B483B09F
:102EC00000AF78607B68DB6803F04003402B0CBFE9
:102ED00001230023DBB218460C37BD465DF8047BA6
:102EE000704780B483B000AF78607B68DB6803F024
:102EF0002003202B0CBF01230023DBB218460C3724
:102F0000BD465DF8047B704780B483B000AF786045
:102F10007B68DB6803F0800363F0A0027B68DA6003
:102F200000BF0C37BD465DF8047B704780B400AF2E
:102F3000074B1B6803F48033B3F5803F0CBF0123BC
:102F40000023DBB21846BD465DF8047B704700BF26
:102F500010E000E080B584B000AF786039600123F4
:102F6000FB737868FFF750FF786800F071F903464B
:102F7000012B16D03B681B6819467868FFF7BEFE28
:102F80003B689B6819467868FFF71CFF3B685B68E5
:102F900019467868FFF702FF7868FFF7DEFE002326
:102FA000FB737868FFF723FFFB7B18461037BD469D
:102FB00080BD0000F0B589B002AFF860B9607A60FA
:102FC0000123FB75BB68002B09D1F868FFF7A9FE48
:102FD0000346002B0CD17B6800221A6008E0F868D9
:102FE000FFF79FFE0346002B02D17B6800221A6088
:102FF000F868FFF709FFF86800F02AF90346012B8B
:1030000073D0BB68002B0FD07B6819687B681B7975
:103010001A467B685B7918467B689B790093034668
:10302000F868FFF701FF4FE07B681C687B681B793D
:10303000324AA2FB0323DB08DBB21B01D8B27B6858
:103040001A792E4BA3FB0213D9080B469B000B44A5
:103050005B00D31ADBB20343DBB21D467B685B79AE
:10306000264AA2FB0323DB08DBB21B01D8B27B6834
:103070005A79224BA3FB0213D9080B469B000B4441
:103080005B00D31ADBB20343DBB21E467B689B793D
:103090001A4AA2FB0323DB08DBB21B01D8B27B6810
:1030A0009A79164BA3FB0213D9080B469B000B44DD
:1030B0005B00D31ADBB20343DBB2009333462A46EC
:1030C0002146F868FFF7B0FE0D48FFF746FEF868A6
:1030D000FFF751FE0346002B05D1F86800F0EDF82C
:1030E0000346FB7501E00023FB75F868FFF77FFEE0
:1030F000FB7D18461C37BD46F0BD00BFCDCCCCCC07
:1031000000280040F0B589B002AFF860B9607A607D
:103110000123FB75BB68002B0ED17B685B7803F045
:103120001003002B08D07B685B7823F01003DBB220
:103130000A33DAB27B685A70F868FFF765FEF86800
:1031400000F086F80346012B75D0BB68002B10D029
:103150007B681B7819467B689B781A467B685B788E
:1031600018467B68DB7800930346F868FFF780FE1B
:1031700050E07B681B781C467B689B78324AA2FB38
:103180000323DB08DBB21B01D8B27B689A782E4B95
:10319000A3FB0213D9080B469B000B445B00D31A18
:1031A000DBB20343DBB21D467B685B78264AA2FB99
:1031B0000323DB08DBB21B01D8B27B685A78224BB1
:1031C000A3FB0213D9080B469B000B445B00D31AE8
:1031D000DBB20343DBB21E467B68DB781A4AA2FBF4
:1031E0000323DB08DBB21B01D8B27B68DA78164B0D
:1031F000A3FB0213D9080B469B000B445B00D31AB8
:10320000DBB20343DBB2009333462A462146F8681B
:10321000FFF72EFE0D48FFF7A0FDF868FFF7ABFDA6
:103220000346002B05D1F86800F047F80346FB750C
:1032300001E00023FB75F868FFF7D9FDFB7D184618
:103240001C37BD46F0BD00BFCDCCCCCC0028004023
:1032500080B586B000AF78604FF47A73FB600023CE
:10326000FB7500233B617868FFF728FE0346002BBF
:103270001ED17868FFF763FD7868FFF71FFE38619D
:1032800010E0FFF753FE0346012B02D1FB68013B20
:10329000FB607868FFF712FE3861FB68002B01D1F4
:1032A0000123FB75FB68002B02D03B69012BE8D1A1
:1032B000FB7D18461837BD4680BD80B586B000AF8F
:1032C00078604FF47A73FB600023FB7500233B6149
:1032D0007868FFF719FE7868FFF703FE386110E0A1
:1032E000FFF724FE0346012B02D1FB68013BFB6084
:1032F0007868FFF7F6FD3861FB68002B01D10123E8
:10330000FB75FB68002B02D03B69002BE8D1FB7DED
:10331000012B1ED04FF47A73FB607868FFF7E1FD54
:10332000386110E0FFF702FE0346012B02D1FB6873
:10333000013BFB607868FFF7D4FD3861FB68002B28
:1033400001D10123FB75FB68002B02D03B69012BE7
:10335000E8D1FB7D18461837BD4680BD80B483B0E8
:1033600000AF78607B681B6803F04003402B01D1FD
:10337000012300E0002318460C37BD465DF8047BAE
:10338000704780B483B000AF786039603B689BB20F
:103390001A467B681A6100BF0C37BD465DF8047B96
:1033A000704780B584B000AF786039600123FB734B
:1033B0007868FFF7D3FF0346002B39D17B681B6881
:1033C00023F47F4323F0BF033A6811683A685268D8
:1033D00011433A68926811433A68D26811433A68D7
:1033E000126911433A68526911433A68926911436C
:1033F0003A68D26911433A68126A0A431A437B68F1
:103400001A607B685B6823F004023B685B691B0CF5
:103410001A437B685A603B681B6AB3F5005F05D1AD
:103420003B685B6A19467868FFF7ABFF0023FB73C4
:103430007B68DB6923F400627B68DA61FB7B1846FA
:103440001037BD4680BD80B483B000AF78607B6824
:10345000DB6803F40053B3F5005F0CBF01230023C6
:10346000DBB218460C37BD465DF8047B704780B46C
:1034700083B000AF786039607B681B6923F44052E9
:103480003B681A437B681A6100BF0C37BD465DF884
:10349000047B704780B483B000AF786039607B688C
:1034A0005B6923F440723B681A437B685A6100BF32
:1034B0000C37BD465DF8047B704700002DE9F04FE6
:1034C00091B000AFF863B9637A633B637B6BB3F58C
:1034D000004F40F0A780BB6B19464FF000020B462F
:1034E0001446DB1844EB04045B1844EB0204E600CA
:1034F00046EA5376DD002B4634465D1844EB02065F
:10350000284631463B6B4FF00004DB1844EB0404C3
:103510001A462346FCF7C4FE03460C461A46A14B46
:10352000A3FB02235B099BB21B019DB2BB6B194637
:103530004FF000020B461446DB1844EB04045B1802
:1035400044EB02044FEAC40B4BEA537B4FEAC30A35
:1035500053465C4613EB010A44EB020B50465946B6
:103560003B6B4FF00004DB1844EB04041A4623467F
:10357000FCF796FE03460C461A468A4BA3FB021341
:103580005B09642101FB03F3D31ADB003233854A64
:10359000A2FB03235B099BB25B009BB203F4F873AD
:1035A0009BB22B449DB2BB6B19464FF000020B46F9
:1035B0001446DB1844EB04045B1844EB02044FEAA6
:1035C000C40949EA53794FEAC30843464C4613EB12
:1035D000010844EB0209404649463B6B4FF00004AA
:1035E000DB1844EB04041A462346FCF759FE034655
:1035F0000C461A466B4BA3FB02135B09642101FBCB
:1036000003F3D31ADB003233664AA2FB03235B09C0
:103610009BB203F007039BB22B449BB21A46FB6B91
:103620009A60BAE0BB6B19464FF000020B46144695
:10363000DB1844EB04045B1844EB0204E0007861FF
:10364000786940EA53707861DB003B61D7E9043464
:103650005D1844EB0206284631463B6B4FF00004F0
:10366000A200FA62FA6A42EA9372FA629B00BB62B3
:10367000D7E90A23FCF714FE03460C461A46494BC9
:10368000A3FB02235B099BB21B019DB2BB6B1946D6
:103690004FF000020B461446DB1844EB04045B18A1
:1036A00044EB0204E000F860F86840EA5370F86008
:1036B000DB00BB60D7E9023413EB010844EB0209DD
:1036C000404649463B6B4FF00004A2007A627A6A9A
:1036D00042EA93727A629B003B62D7E90823FCF7C7
:1036E000DFFD03460C461A462E4BA3FB02135B0973
:1036F000642101FB03F3D31A1B013233294AA2FBD5
:1037000003235B099BB203F0F0039BB22B449DB2F1
:10371000BB6B19464FF000020B461446DB1844EB16
:1037200004045B1844EB0204E0007860786840EA27
:1037300053707860DB003B6097E8180013EB0108DA
:1037400044EB0209404649463B6B4FF00004A2009F
:10375000FA61FA6942EA9372FA619B00BB61D7E9A8
:103760000623FCF79DFD03460C461A460D4BA3FBB2
:1037700002135B09642101FB03F3D31A1B013233EB
:10378000084AA2FB03235B099BB203F00F039BB221
:103790002B449BB21A46FB6B9A6000BF4437BD4670
:1037A000BDE8F08F1F85EB5180B588B000AF786021
:1037B00039600123FB770023BB617868FFF743FE84
:1037C0000346002B5ED17B68DB6823F4164323F0AD
:1037D0000C033A6851683A68D26811433A68126932
:1037E00011433A6892690A431A437B68DA603B687E
:1037F0009B6819467868FFF73AFE3B685B69194693
:103800007868FFF747FE07F108031846FFF7AEF99F
:103810007B681F4A934202D17B69BB6121E07B68D0
:103820001C4A934202D13B69BB611AE07B681A4A89
:10383000934202D13B69BB6113E07B68174A934214
:1038400002D17B69BB610CE07B68154A934202D1CF
:103850003B69BB6105E07B68124A934201D13B6939
:10386000BB61BB69002B0DD03B681B68002B09D0E6
:103870000023FB773B689A693B681B68B9697868E5
:10388000FFF71CFEFB7F18462037BD4680BD00BFFA
:103890000010014000440040004800400014014076
:1038A000004C00400050004080B483B000AF78600E
:1038B000044A7B68136000BF0C37BD465DF8047B8B
:1038C000704700BF0C00002080B400AF00BFBD46B1
:1038D0005DF8047B7047000080B485B000AFEFF363
:1038E0000583BB60BB68002B0FD1EFF310837B60B7
:1038F0007B68002B05D1EFF311833B603B68002B05
:1039000007D00E4B1B68022B03D16FF00503FB6041
:103910000CE00A4B1B68002B05D1084B01221A60F2
:103920000023FB6002E04FF0FF33FB60FB681846AA
:103930001437BD465DF8047B704700BF4806002081
:1039400080B584B000AFEFF30583BB60BB68002B8C
:103950000FD1EFF310837B607B68002B05D1EFF371
:1039600011833B603B68002B07D00F4B1B68022B79
:1039700003D16FF00503FB6010E00B4B1B68012BBC
:1039800009D1FFF7A1FF084B02221A6001F084FC65
:103990000023FB6002E04FF0FF33FB60FB6818463A
:1039A0001037BD4680BD00BF4806002080B590B0EE
:1039B00004AFF860B9607A6000233B61EFF30583E0
:1039C000FB61FB69002B40F08F80EFF31083BB613C
:1039D000BB69002B05D1EFF311837B617B69002B61
:1039E00003D0444B1B68022B7ED0FB68002B7BD09E
:1039F0008023BB6218237B620023FB624FF0FF33FE
:103A00003B627B68002B45D07B681B68002B02D093
:103A10007B681B68FB627B689B69002B02D07B681C
:103A20009B697B627B6A002B08D07B6A382B05D8A8
:103A30007B685B6803F00103002B01D0002354E096
:103A40007B685B69002B03D07B685B699B08BB626A
:103A50007B689B68002B0ED07B68DB685B2B0AD9E8
:103A60007B681B69002B06D07B685B69002B02D04A
:103A700001233B6210E07B689B68002B0CD17B68C4
:103A8000DB68002B08D17B681B69002B04D1002365
:103A90003B6201E000233B623B6A012B10D17B6853
:103AA0001B697A689268029201937B6A0093BB68F3
:103AB000BA6AF96AF86801F01DFA03463B6113E03F
:103AC0003B6A002B10D1BB6A9AB207F11003019335
:103AD0007B6A0093BB68F96AF86801F065FA0346EF
:103AE000012B01D000233B613B6918463037BD46AE
:103AF00080BD00BF4806002080B586B000AF78606A
:103B0000EFF305833B613B69002B0FD1EFF310838B
:103B1000FB60FB68002B05D1EFF31183BB60BB6832
:103B2000002B07D00A4B1B68022B03D16FF0050353
:103B30007B6107E000237B617B68002B02D0786803
:103B400001F076FB7B6918461837BD4680BD00BF83
:103B50004806002080B485B000AFF860B9607A6094
:103B6000FB68074A1A60BB68064A1A607B688022B5
:103B70001A6000BF1437BD465DF8047B704700BF74
:103B80004C060020A806002080B485B000AFF86085
:103B9000B9607A60FB68074A1A60BB68064A1A6017
:103BA0007B684FF480721A6000BF1437BD465DF821
:103BB000047B7047A80800200409002080B483B06B
:103BC00000AF78607B6803F108027B685A607B680D
:103BD0004FF0FF329A607B6803F108027B68DA607D
:103BE0007B6803F108027B681A617B6800221A6017
:103BF00000BF0C37BD465DF8047B704780B483B0CE
:103C000000AF78607B6800221A6100BF0C37BD46A8
:103C10005DF8047B704780B485B000AF7860396090
:103C20007B685B68FB603B68FA685A60FB689A686F
:103C30003B689A60FB689B683A685A60FB683A6820
:103C40009A603B687A681A617B681B685A1C7B68BB
:103C50001A6000BF1437BD465DF8047B704780B41E
:103C600085B000AF786039603B681B68BB60BB689B
:103C7000B3F1FF3F03D17B681B69FB600CE07B68FD
:103C80000833FB6002E0FB685B68FB60FB685B6815
:103C90001A68BB689A42F6D9FB685A683B685A6052
:103CA0003B685B683A689A603B68FA689A60FB68B0
:103CB0003A685A603B687A681A617B681B685A1CCC
:103CC0007B681A6000BF1437BD465DF8047B7047FF
:103CD00080B485B000AF78607B681B69FB607B684F
:103CE0005B687A6892689A607B689B687A685268B9
:103CF0005A60FB685A687B689A4203D17B689A686D
:103D0000FB685A607B6800221A61FB681B685A1EB8
:103D1000FB681A60FB681B6818461437BD465DF8DF
:103D2000047B704780B485B000AFF860B9607A60FA
:103D3000FB68043BFB60FB684FF080721A60FB6815
:103D4000043BFB60BB6823F00102FB681A60FB6860
:103D5000043BFB600C4AFB681A60FB68143BFB6089
:103D60007A68FB681A60FB68043BFB60FB686FF0D5
:103D700002021A60FB68203BFB60FB6818461437A0
:103D8000BD465DF8047B70478D3D000880B485B06A
:103D900000AF00237B60114B1B68B3F1FF3F09D0DC
:103DA0004FF0500383F31188BFF36F8FBFF34F8F32
:103DB000FB60FEE74FF0500383F31188BFF36F8F72
:103DC000BFF34F8FBB6000BF7B68002BFCD000BFF0
:103DD0001437BD465DF8047B704700BF0400002027
:103DE000074B19680868B0E8F04F80F30988BFF303
:103DF0006F8F4FF0000080F311887047AFF30080A1
:103E00002485002000BF00BF08480068006880F3D8
:103E100008884FF0000080F3148862B661B6BFF3E3
:103E20004F8FBFF36F8F00DF00BF00BF08ED00E0D2
:103E300080B586B000AF444B1B68444A934209D119
:103E40004FF0500383F31188BFF36F8FBFF34F8F91
:103E50003B61FEE73C4B1B683D4A934209D14FF062
:103E6000500383F31188BFF36F8FBFF34F8FFB6055
:103E7000FEE7384B7B617B691B78DBB27B607B693B
:103E8000FF221A707B691B78DBB2FB70FB78DBB218
:103E900003F05003DAB2304B1A70304B07221A602D
:103EA00009E02E4B1B68013B2C4A1360FB78DBB208
:103EB0005B00DBB2FB70FB78DBB203F08003802B8E
:103EC000EFD0264B1B68C3F10703042B09D04FF03A
:103ED000500383F31188BFF36F8FBFF34F8FBB6025
:103EE000FEE71E4B1B681B021C4A13601B4B1B6822
:103EF00003F4E063194A13607B68DAB27B691A70D5
:103F0000174A174B1B6843F470031360144A144B91
:103F10001B6843F07043136000F0D6F8114B002289
:103F20001A6000F0F5F8104A0F4B1B6843F040434D
:103F30001360FFF769FF01F085FBFFF727FF002300
:103F400018461837BD4680BD00ED00E071C20F4134
:103F500070C20F4100E400E0040D0020080D0020B5
:103F600020ED00E00400002034EF00E080B483B0D6
:103F700000AF4FF0500383F31188BFF36F8FBFF38F
:103F80004F8F7B600E4B1B6801330D4A13600C4B47
:103F90001B68012B0ED10B4B1B68DBB2002B09D029
:103FA0004FF0500383F31188BFF36F8FBFF34F8F30
:103FB0003B60FEE700BF0C37BD465DF8047B7047F1
:103FC0000400002004ED00E080B483B000AF114B8A
:103FD0001B68002B09D14FF0500383F31188BFF306
:103FE0006F8FBFF34F8F7B60FEE70A4B1B68013B6F
:103FF000084A1360074B1B68002B04D100233B6069
:104000003B6883F3118800BF0C37BD465DF8047B25
:10401000704700BF04000020000000000000000006
:10402000EFF30980BFF36F8F154B1A681EF0100F66
:1040300008BF20ED108A20E9F04F10602DE909003B
:104040004FF0500080F31188BFF34F8FBFF36F8F95
:1040500001F0F8FA4FF0000080F3118809BC1968EC
:104060000868B0E8F04F1EF0100F08BFB0EC108ADF
:1040700080F30988BFF36F8F704700BFAFF30080F4
:104080002485002000BF00BF80B582B000AF4FF094
:10409000500383F31188BFF36F8FBFF34F8F7B60A3
:1040A00001F018FA0346002B03D0064B4FF0805264
:1040B0001A6000233B603B6883F3118800BF083718
:1040C000BD4680BD04ED00E080B400AF0B4B002284
:1040D0001A600B4B00221A600A4A0B4B1B680B49F3
:1040E000A1FB03139B09013B1360044B07221A60D9
:1040F00000BFBD465DF8047B704700BF10E000E0E4
:1041000018E000E014E000E00C000020D34D621045
:10411000DFF80C00016841F470010160704700BFD6
:1041200088ED00E080B485B000AFEFF30583FB605D
:10413000FB680F2B13D9164AFB6813441B78FB72DC
:10414000144B1B78FA7A9A4209D24FF0500383F34A
:104150001188BFF36F8FBFF34F8F7B60FEE70E4B6D
:104160001B6803F4E0620D4B1B689A4209D94FF0BB
:10417000500383F31188BFF36F8FBFF34F8F3B6002
:10418000FEE700BF1437BD465DF8047B704700BFF3
:10419000F0E300E0040D00200CED00E0080D00202D
:1041A00080B58AB000AF78600023FB6101F0D8F8D9
:1041B000574B1B68002B01D100F00CF9554B1A68C6
:1041C0007B681340002B40F08C807B68002B1CD058
:1041D00008227B6813447B607B6803F00703002B95
:1041E00013D07B6823F0070308337B607B6803F000
:1041F0000703002B09D04FF0500383F31188BFF35E
:104200006F8FBFF34F8F7B61FEE77B68002B68D019
:10421000414B1B687A689A4263D8404B3B623F4BE4
:104220001B687B6204E07B6A3B627B6A1B687B6283
:104230007B6A5A687B689A4203D27B6A1B68002BB0
:10424000F1D1334B1B687A6A9A424AD03B6A1B68A9
:1042500008221344FB617B6A1A683B6A1A607B6A16
:104260005A687B68D21A08235B009A421ED97A6A80
:104270007B681344BB61BB6903F00703002B09D0C3
:104280004FF0500383F31188BFF36F8FBFF34F8F4D
:104290003B61FEE77B6A5A687B68D21ABB695A6049
:1042A0007B6A7A685A60B86900F0F6F81A4B1A68A7
:1042B0007B6A5B68D31A184A1360174B1A68184B4D
:1042C0001B689A4203D2144B1B68154A13607B6A21
:1042D0005A68104B1B681A437B6A5A607B6A00223B
:1042E0001A6001F04BF8FB6903F00703002B09D0BB
:1042F0004FF0500383F31188BFF36F8FBFF34F8FDD
:10430000FB60FEE7FB6918462837BD4680BD00BF4D
:104310001485002020850020188500200C850020B1
:104320001C85002080B586B000AF78607B687B611B
:104330007B68002B46D008235B427A6913447B617B
:104340007B693B613B695A68204B1B681340002B1B
:1043500009D14FF0500383F31188BFF36F8FBFF380
:104360004F8FFB60FEE73B691B68002B09D04FF0C5
:10437000500383F31188BFF36F8FBFF34F8FBB6080
:10438000FEE73B695A68114B1B681340002B19D09C
:104390003B691B68002B15D13B695A680B4B1B68A6
:1043A000DB431A403B695A6000F0DAFF3B695A6808
:1043B000074B1B681344064A1360386900F06CF819
:1043C00000F0DCFF00BF1837BD4680BD208500200F
:1043D0001885002080B485B000AF4FF4F043BB6077
:1043E000274BFB60FB6803F00703002B0CD0FB6836
:1043F0000733FB60FB6823F00703FB60BA68FB68C8
:10440000D31A1F4A1344BB60FB687B601D4A7B685C
:1044100013601C4B00225A607A68BB681344FB602F
:104420000822FB689B1AFB60FB6823F00703FB6014
:10443000FB68154A1360144B1B6800225A60124B2C
:104440001B6800221A607B683B603B68FA68D21ADE
:104450003B685A600C4B1A683B681A603B685B68A3
:104460000A4A13603B685B68094A1360094B4FF0C6
:1044700000421A6000BF1437BD465DF8047B7047E8
:104480000C0D00200C850020148500201C850020C8
:10449000188500202085002080B485B000AF7860AA
:1044A000284BFB6002E0FB681B68FB60FB681A6836
:1044B0007B689A42F7D3FB68BB60FB685B68BA68AD
:1044C0001A447B689A4208D1FB685A687B685B682B
:1044D0001A44FB685A60FB687B607B68BB607B6842
:1044E0005B68BA681A44FB681B689A4218D1FB687B
:1044F0001A68154B1B689A420DD07B685A68FB6896
:104500001B685B681A447B685A60FB681B681A6802
:104510007B681A6008E00C4B1A687B681A6003E03D
:10452000FB681A687B681A60FA687B689A4202D056
:10453000FB687A681A6000BF1437BD465DF8047BDB
:10454000704700BF0C8500201485002080B584B022
:1045500000AF786039607B68FB60FB68002B09D195
:104560004FF0500383F31188BFF36F8FBFF34F8F6A
:10457000BB60FEE7FFF7FAFCFB681A68FB68DB6BC1
:10458000F968096C01FB03F31A44FB689A60FB6845
:1045900000229A63FB681A68FB685A60FB681A6815
:1045A000FB68DB6B013BF968096C01FB03F31A4400
:1045B000FB68DA60FB68FF2283F84420FB68FF2277
:1045C00083F845203B68002B14D1FB681B69002B46
:1045D0001AD0FB681033184601F0DEF80346002BB2
:1045E00012D00D4B4FF080521A60BFF34F8FBFF3C4
:1045F0006F8F09E0FB6810331846FFF7DFFAFB689E
:1046000024331846FFF7DAFAFFF7DEFC01231846D9
:104610001037BD4680BD00BF04ED00E080B58EB010
:1046200002AFF860B9607A603B60FB68002B09D18B
:104630004FF0500383F31188BFF36F8FBFF34F8F99
:10464000BB62FEE73B68002B09D14FF0500383F3B8
:104650001188BFF36F8FBFF34F8F7B62FEE77B68DC
:10466000002B02D0BB68002B01D0012300E0002307
:10467000002B09D14FF0500383F31188BFF36F8FE4
:10468000BFF34F8F3B62FEE77B68002B02D1BB6814
:10469000002B01D1012300E00023002B09D14FF0B2
:1046A000500383F31188BFF36F8FBFF34F8FFB610C
:1046B000FEE750237B617B69502B09D04FF05003FC
:1046C00083F31188BFF36F8FBFF34F8FBB61FEE79A
:1046D0007B693B68FB62FB6A002B0DD0FB6A012201
:1046E00083F8462097F83820FB6A009313467A68CF
:1046F000B968F86800F005F8FB6A18463037BD461F
:1047000080BD80B584B000AFF860B9607A60FB709E
:10471000BB68002B03D1BB69BA691A6002E0BB69B0
:104720007A681A60BB69FA68DA63BB69BA681A64A6
:104730000121B869FFF70AFFBB69FA7883F84C20BA
:1047400000BF1037BD4680BD80B58EB000AFF860A9
:10475000B9607A603B6000237B63FB683B633B6B23
:10476000002B09D14FF0500383F31188BFF36F8FF3
:10477000BFF34F8FBB62FEE7BB68002B03D13B6BDF
:104780001B6C002B01D1012300E00023002B09D179
:104790004FF0500383F31188BFF36F8FBFF34F8F38
:1047A0007B62FEE73B68022B03D13B6BDB6B012B8B
:1047B00001D1012300E00023002B09D14FF0500369
:1047C00083F31188BFF36F8FBFF34F8F3B62FEE718
:1047D00001F098F90346002B02D17B68002B01D130
:1047E000012300E00023002B09D14FF0500383F395
:1047F0001188BFF36F8FBFF34F8FFB61FEE7FFF7A9
:10480000B5FB3B6B9A6B3B6BDB6B9A4202D33B680D
:10481000022B29D13A68B968386B00F0FFF9F862C9
:104820003B6B5B6A002B10D03B6B2433184600F0C7
:10483000B3FF0346002B13D03F4B4FF080521A605A
:10484000BFF34F8FBFF36F8F0AE0FB6A002B07D0D7
:10485000394B4FF080521A60BFF34F8FBFF36F8F09
:10486000FFF7B2FB012363E07B68002B03D1FFF766
:10487000ABFB00235CE07B6B002B06D107F114033C
:10488000184600F0EBFF01237B63FFF79DFB00F070
:1048900067FDFFF76BFB3B6B93F844305BB2B3F102
:1048A000FF3F03D13B6B002283F844203B6B93F81E
:1048B00045305BB2B3F1FF3F03D13B6B002283F87D
:1048C0004520FFF781FB3A1D07F1140311461846F6
:1048D00000F0DAFF0346002B24D1386B00F096FA83
:1048E0000346002B18D03B6B10337A6811461846EC
:1048F00000F004FF386B00F021FA00F03FFD0346A2
:10490000002B7FF47CAF0C4B4FF080521A60BFF34A
:104910004F8FBFF36F8F72E7386B00F00FFA00F024
:104920002DFD6CE7386B00F009FA00F027FD00233D
:1049300018463837BD4680BD04ED00E080B58EB026
:1049400000AFF860B9607A603B60FB683B633B6B2B
:10495000002B09D14FF0500383F31188BFF36F8F01
:10496000BFF34F8F7B62FEE7BB68002B03D13B6B2D
:104970001B6C002B01D1012300E00023002B09D187
:104980004FF0500383F31188BFF36F8FBFF34F8F46
:104990003B62FEE73B68022B03D13B6BDB6B012BD9
:1049A00001D1012300E00023002B09D14FF0500377
:1049B00083F31188BFF36F8FBFF34F8FFB61FEE767
:1049C000FFF7B0FBEFF311824FF0500383F3118830
:1049D000BFF36F8FBFF34F8FBA617B61BB69FB621F
:1049E0003B6B9A6B3B6BDB6B9A4202D33B68022BAF
:1049F0002CD13B6B93F8453087F82B303A68B96877
:104A0000386B00F00BF997F92B30B3F1FF3F12D15F
:104A10003B6B5B6A002B16D03B6B2433184600F0CF
:104A2000BBFE0346002B0ED07B68002B0BD07B68AF
:104A300001221A6007E097F82B300133DBB25AB23B
:104A40003B6B83F8452001237B6301E000237B63FC
:104A5000FB6A3B613B6983F311887B6B18463837EF
:104A6000BD4680BD80B58CB000AFF860B9607A609B
:104A70000023FB62FB68BB62BB6A002B09D14FF0CD
:104A8000500383F31188BFF36F8FBFF34F8F3B62E7
:104A9000FEE7BB68002B03D1BB6A1B6C002B01D166
:104AA000012300E00023002B09D14FF0500383F3D2
:104AB0001188BFF36F8FBFF34F8FFB61FEE701F0EB
:104AC00021F80346002B02D17B68002B01D1012382
:104AD00000E00023002B09D14FF0500383F311882D
:104AE000BFF36F8FBFF34F8FBB61FEE7FFF73EFA57
:104AF000BB6A9B6B7B627B6A002B1FD0B968B86A6C
:104B000000F0F6F87B6A5A1EBB6A9A63BB6A1B699F
:104B1000002B0FD0BB6A1033184600F03DFE034651
:104B2000002B07D03C4B4FF080521A60BFF34F8FE1
:104B3000BFF36F8FFFF748FA012369E07B68002B12
:104B400003D1FFF741FA002362E0FB6A002B06D194
:104B500007F11003184600F081FE0123FB62FFF706
:104B600033FA00F0FDFBFFF701FABB6A93F844301B
:104B70005BB2B3F1FF3F03D1BB6A002283F844204C
:104B8000BB6A93F845305BB2B3F1FF3F03D1BB6A18
:104B9000002283F84520FFF717FA3A1D07F11003AA
:104BA0001146184600F070FE0346002B23D1B86A68
:104BB00000F016F90346002B17D0BB6A24337A683D
:104BC0001146184600F09AFDB86A00F0B7F800F0F8
:104BD000D5FB0346002B89D10F4B4FF080521A6052
:104BE000BFF34F8FBFF36F8F80E7B86A00F0A6F86E
:104BF00000F0C4FB7AE7B86A00F0A0F800F0BEFB52
:104C0000B86A00F0EDF80346002B3FF46FAF0023C5
:104C100018463037BD4680BD04ED00E080B586B053
:104C200000AFF860B9607A6000237B61FB689B6B22
:104C30003B61FB681B6C002B0DD1FB681B68002BD4
:104C40004DD1FB689B68184600F07AFF7861FB68DD
:104C500000229A6043E07B68002B19D1FB685868FA
:104C6000FB681B6C1A46B96803F095FCFB685A6830
:104C7000FB681B6C1A44FB685A60FB685A68FB6847
:104C80009B689A422BD3FB681A68FB685A6026E03F
:104C9000FB68D868FB681B6C1A46B96803F07BFC9C
:104CA000FB68DA68FB681B6C5B421A44FB68DA60DD
:104CB000FB68DA68FB681B689A4207D2FB689A684F
:104CC000FB681B6C5B421A44FB68DA607B68022B52
:104CD00005D13B69002B02D03B69013B3B613B693D
:104CE0005A1CFB689A637B6918461837BD4680BD1D
:104CF00080B582B000AF786039607B681B6C002B98
:104D000018D07B68DA687B681B6C1A447B68DA60B1
:104D10007B68DA687B689B689A4203D37B681A6871
:104D20007B68DA607B68D9687B681B6C1A463868D8
:104D300003F031FC00BF0837BD4680BD80B584B0AC
:104D400000AF7860FFF712F97B6893F84530FB738A
:104D500011E07B685B6A002B12D07B682433184615
:104D600000F01AFD0346002B01D000F0EDFDFB7BA7
:104D7000013BDBB2FB7397F90F30002BE9DC00E05D
:104D800000BF7B68FF2283F84520FFF71DF9FFF77E
:104D9000EDF87B6893F84430BB7311E07B681B69C6
:104DA000002B12D07B681033184600F0F5FC034648
:104DB000002B01D000F0C8FDBB7B013BDBB2BB7315
:104DC00097F90E30002BE9DC00E000BF7B68FF2282
:104DD00083F84420FFF7F8F800BF1037BD4680BDC8
:104DE00080B584B000AF7860FFF7C0F87B689B6B3C
:104DF000002B02D10123FB6001E00023FB60FFF7E1
:104E0000E3F8FB6818461037BD4680BD80B584B016
:104E100000AF7860FFF7AAF87B689A6B7B68DB6B62
:104E20009A4202D10123FB6001E00023FB60FFF7FF
:104E3000CBF8FB6818461037BD4680BD80B485B0FE
:104E400000AF786039600023FB6014E00E4AFB6815
:104E500052F83330002B0BD10B49FB683A6841F80C
:104E60003320094AFB68DB0013447A685A6005E086
:104E7000FB680133FB60FB68072BE7D900BF1437E1
:104E8000BD465DF8047B70472CA1002080B586B03C
:104E900000AFF860B9607A60FB687B61FFF766F885
:104EA0007B6993F844305BB2B3F1FF3F03D17B6978
:104EB000002283F844207B6993F845305BB2B3F15C
:104EC000FF3F03D17B69002283F84520FFF77CF880
:104ED0007B699B6B002B06D17B6924337A68B968A8
:104EE000184600F02FFC7869FFF728FF00BF18373D
:104EF000BD4680BD80B58EB004AFF860B9607A6001
:104F00003B607B6B002B09D14FF0500383F311887A
:104F1000BFF36F8FBFF34F8F3B62FEE7BB6B002B7E
:104F200009D14FF0500383F31188BFF36F8FBFF3A4
:104F30004F8FFB61FEE75C233B613B695C2B09D033
:104F40004FF0500383F31188BFF36F8FBFF34F8F80
:104F5000BB61FEE73B69BB6B002B1ED07B6B002B5C
:104F60001BD0BB6B7B627B6A7A6B1A637B6A022203
:104F700083F85920002303937B6A029307F11403FB
:104F800001933B6B00933B687A68B968F86800F05E
:104F900050F8786A00F0DCF801E000237B617B695F
:104FA00018462837BD4680BD80B58CB004AFF86088
:104FB000B9603B601346FB80FB889B001846FFF7F7
:104FC000EFF878617B69002B0ED05C20FFF7E8F8E2
:104FD000F861FB69002B03D0FB697A691A6305E06D
:104FE0007869FFF79FF901E00023FB61FB69002B63
:104FF00017D0FB69002283F85920FA880023039315
:10500000FB690293FB6A0193BB6A00933B68B96832
:10501000F86800F00EF8F86900F09AF80123BB6117
:1050200002E04FF0FF33BB61BB6918462037BD4635
:1050300080BD80B588B000AFF860B9607A603B6031
:105040003B6B186B7B689B001A46A52103F0AEFAF8
:105050003B6B1A6B7B6803F18043013B9B0013445D
:10506000BB61BB6923F00703BB61BB6903F00703A6
:10507000002B09D04FF0500383F31188BFF36F8FDB
:10508000BFF34F8F7B61FEE7BB68002B1FD000236F
:10509000FB6112E0BA68FB69134419783A6BFB694B
:1050A000134434330A461A70BA68FB6913441B78F8
:1050B000002B06D0FB690133FB61FB690F2BE9D99B
:1050C00000E000BF3B6B002283F8432003E03B6B12
:1050D000002283F83420BB6A372B01D93723BB6207
:1050E0003B6BBA6ADA623B6BBA6ADA643B6B0022EA
:1050F0001A653B6B04331846FEF780FD3B6B183393
:105100001846FEF77BFD3B6B3A6B1A61BB6AC3F135
:1051100038023B6B9A613B6B3A6B5A623B6B0022E5
:105120005A653B6B002283F858203A68F968B869E1
:10513000FEF7F8FD02463B6B1A60FB6A002B02D0BB
:10514000FB6A3A6B1A6000BF2037BD4680BD000085
:1051500080B582B000AF7860FEF708FF2D4B1B686A
:1051600001332C4A13602C4B1B68002B09D12A4AAF
:105170007B681360274B1B68012B10D100F008FCE3
:105180000DE0264B1B68002B09D1234B1B68DA6A04
:105190007B68DB6A9A4202D81F4A7B681360204B07
:1051A0001B6801331E4A13601D4B1A687B685A64E2
:1051B0007B68DA6A1B4B1B689A4203D97B68DB6AFF
:1051C000184A13607B68DA6A13469B0013449B00FD
:1051D000154A1A447B68043319461046FEF71BFD36
:1051E000FEF7F2FE0D4B1B68002B0ED00A4B1B681E
:1051F000DA6A7B68DB6A9A4207D20C4B4FF0805226
:105200001A60BFF34F8FBFF36F8F00BF0837BD46E3
:1052100080BD00BFF889002024850020048A00207A
:10522000148A0020008A00202885002004ED00E078
:1052300080B584B000AF78600023FB607B68002BF2
:1052400016D0134B1B68002B09D04FF0500383F38B
:105250001188BFF36F8FBFF34F8FBB60FEE700F085
:105260007FF80021786800F0D7FC00F087F8F8603C
:10527000FB68002B07D1074B4FF080521A60BFF339
:105280004F8FBFF36F8F00BF1037BD4680BD00BF8B
:10529000208A002004ED00E080B58AB004AF00232E
:1052A000BB6000237B603A46391D07F108031846AE
:1052B000FEF750FC39687B68BA68029201930023BC
:1052C000009300230A4620492048FFF713FE0246B8
:1052D0001F4B1A601E4B1B68002B02D001237B6101
:1052E00001E000237B617B69012B02D100F0E8FC27
:1052F00078617B69012B15D14FF0500383F311883E
:10530000BFF36F8FBFF34F8F3B61124B4FF0FF32F4
:105310001A60114B01221A60104B00221A60FEF72E
:1053200087FD0DE07B69B3F1FF3F09D14FF05003DA
:1053300083F31188BFF36F8FBFF34F8FFB60FEE7DE
:1053400000BF1837BD4680BDDC9F000861590008CA
:105350001C8A0020188A0020048A0020FC89002072
:1053600080B400AF044B1B680133034A136000BFD5
:10537000BD465DF8047B7047208A002080B584B06C
:1053800000AF0023FB600023BB60414B1B68002B78
:1053900009D14FF0500383F31188BFF36F8FBFF330
:1053A0004F8F3B60FEE7FEF7E1FD394B1B68013B89
:1053B000374A1360364B1B68002B62D1354B1B6894
:1053C000002B5ED02FE0344BDB68DB68FB60FB68B2
:1053D00018331846FEF77CFCFB6804331846FEF7CA
:1053E00077FCFB68DA6A2D4B1B689A4203D9FB688D
:1053F000DB6A2A4A1360FB68DA6A13469B0013448F
:105400009B00274A1A44FB68043319461046FEF7EE
:1054100002FCFB68DA6A234B1B68DB6A9A4202D300
:10542000214B01221A601C4B1B68002BCBD1FB685F
:10543000002B01D000F046FB1C4B1B687B607B6897
:10544000002B10D000F046F80346002B02D0164B7C
:1054500001221A607B68013B7B607B68002BF1D1E5
:10546000124B00221A60104B1B68002B09D001233D
:10547000BB600F4B4FF080521A60BFF34F8FBFF3EA
:105480006F8FFEF7A1FDBB6818461037BD4680BD83
:10549000208A0020F8890020B8890020008A002096
:1054A00028850020248500200C8A0020088A0020FE
:1054B00004ED00E080B483B000AF054B1B687B6057
:1054C0007B6818460C37BD465DF8047B704700BF0B
:1054D000FC89002080B586B000AF00237B614E4B75
:1054E0001B68002B40F088804C4B1B6801333B61EC
:1054F0004A4A3B6913603B69002B1FD1484B1B682C
:105500001B68002B09D04FF0500383F31188BFF3C1
:105510006F8FBFF34F8F3B60FEE7414B1B68FB6013
:10552000404B1B683E4A13603E4AFB6813603E4B8B
:105530001B6801333C4A136000F0C4FA3B4B1B6804
:105540003A699A4249D3364B1B681B68002B04D139
:10555000364B4FF0FF321A603FE0314B1B68DB687F
:10556000DB68BB60BB685B687B603A697B689A42BA
:1055700003D22E4A7B6813602FE0BB6804331846C1
:10558000FEF7A6FBBB689B6A002B04D0BB681833F0
:105590001846FEF79DFBBB68DA6A254B1B689A42EA
:1055A00003D9BB68DB6A224A1360BB68DA6A134618
:1055B0009B0013449B001F4A1A44BB6804331946DE
:1055C0001046FEF728FBBB68DA6A1B4B1B68DB6AD8
:1055D0009A42B8D301237B61B5E7174B1B68DA6A9F
:1055E000144913469B0013449B000B441B68012B7A
:1055F00007D901237B6104E0104B1B6801330F4A7C
:1056000013600F4B1B68002B01D001237B617B696A
:1056100018461837BD4680BD208A0020FC8900202E
:10562000B0890020B4890020108A0020188A002048
:10563000008A00202885002024850020088A002078
:105640000C8A002080B485B000AF274B1B68002B6C
:1056500003D0264B01221A6040E0244B00221A603E
:10566000234B1B68FB600FE0FB68002B09D14FF058
:10567000500383F31188BFF36F8FBFF34F8F7B60AD
:10568000FEE7FB68013BFB601A49FA6813469B0082
:1056900013449B000B441B68002BE5D0FA681346AB
:1056A0009B0013449B00134A1344BB60BB685B68B8
:1056B0005A68BB685A60BB685A68BB6808339A422C
:1056C00004D1BB685B685A68BB685A60BB685B689A
:1056D000DB68094A1360064AFB68136000BF143791
:1056E000BD465DF8047B7047208A00200C8A0020AC
:1056F000008A0020288500202485002080B584B001
:1057000000AF786039607B68002B09D14FF05003FF
:1057100083F31188BFF36F8FBFF34F8FFB60FEE7FA
:10572000074B1B68183319467868FEF798FA012171
:10573000386800F071FA00BF1037BD4680BD00BF69
:105740002485002080B586B000AFF860B9607A602B
:10575000FB68002B09D14FF0500383F31188BFF38E
:105760006F8FBFF34F8F7B61FEE70A4B1B681833C7
:105770001946F868FEF74FFA7B68002B02D04FF00D
:10578000FF33BB607968B86800F046FA00BF18378D
:10579000BD4680BD2485002080B586B000AF78600E
:1057A0007B68DB68DB683B613B69002B09D14FF00C
:1057B000500383F31188BFF36F8FBFF34F8FFB60EC
:1057C000FEE73B6918331846FEF782FA1D4B1B684B
:1057D000002B1DD13B6904331846FEF779FA3B696B
:1057E000DA6A194B1B689A4203D93B69DB6A164A8D
:1057F00013603B69DA6A13469B0013449B00134A0B
:105800001A443B69043319461046FEF704FA05E0D2
:105810003B69183319460E48FEF7FDF93B69DA6A11
:105820000C4B1B68DB6A9A4205D901237B610A4B4A
:1058300001221A6001E000237B617B69184618375A
:10584000BD4680BD208A0020008A002028850020D7
:10585000B8890020248500200C8A002080B483B001
:1058600000AF7860064B1A687B681A60054B1A68AF
:105870007B685A6000BF0C37BD465DF8047B7047FB
:10588000108A0020FC89002080B588B000AF7860C5
:1058900039607B68002B09D14FF0500383F31188E6
:1058A000BFF36F8FBFF34F8F3B61FEE73B68002B69
:1058B00009D14FF0500383F31188BFF36F8FBFF30B
:1058C0004F8FFB60FEE7FEF751FB1D4B1B68BB6172
:1058D0007B685B68BA69D31A7B613B681B68B3F16C
:1058E000FF3F02D10023FB6123E07B681A68154B60
:1058F0001B689A4207D07B685A68BB699A4202D8F3
:105900000123FB6115E03B681A687B699A420BD959
:105910003B681A687B69D21A3B681A607868FFF79F
:105920009DFF0023FB6104E03B6800221A60012315
:10593000FB61FEF749FBFB6918462037BD4680BD79
:10594000FC890020108A002080B400AF034B0122A4
:105950001A6000BFBD465DF8047B70470C8A0020CA
:1059600080B582B000AF786000F052F8064B1B683B
:10597000012BF9D9054B4FF080521A60BFF34F8FBE
:10598000BFF36F8FF0E700BF2885002004ED00E033
:1059900080B582B000AF00237B600CE07A681346CC
:1059A0009B0013449B00124A13441846FEF706F965
:1059B0007B6801337B607B68372BEFD90D48FEF79E
:1059C000FDF80D48FEF7FAF80C48FEF7F7F80C481A
:1059D000FEF7F4F80B48FEF7F1F80B4B054A1A6096
:1059E0000A4B054A1A6000BF0837BD4680BD00BF9C
:1059F00028850020888900209C890020B889002003
:105A0000CC890020E4890020B0890020B4890020DE
:105A100080B582B000AF19E0FEF7A8FA0F4BDB6843
:105A2000DB687B607B6804331846FEF751F90C4B4A
:105A30001B68013B0A4A13600A4B1B68013B094A79
:105A40001360FEF7C1FA786800F00EF8054B1B688A
:105A5000002BE1D100BF0837BD4680BDCC890020B6
:105A6000F8890020E089002080B584B000AF78601C
:105A70007B6893F85930002B08D17B681B6B184664
:105A8000FEF750FC7868FEF74DFC17E07B6893F852
:105A90005930012B03D17868FEF744FC0EE07B6897
:105AA00093F85930022B09D04FF0500383F311883B
:105AB000BFF36F8FBFF34F8FFB60FEE700BF103760
:105AC000BD4680BD80B483B000AF0C4B1B681B6823
:105AD000002B04D10A4B4FF0FF321A6008E0074B4D
